{
  "contractName": "MecoNftFactory",
  "abi": [
    {
      "inputs": [],
      "stateMutability": "nonpayable",
      "type": "constructor"
    },
    {
      "anonymous": false,
      "inputs": [
        {
          "indexed": true,
          "internalType": "address",
          "name": "_owner",
          "type": "address"
        },
        {
          "indexed": true,
          "internalType": "address",
          "name": "_spender",
          "type": "address"
        },
        {
          "indexed": false,
          "internalType": "string",
          "name": "_value",
          "type": "string"
        }
      ],
      "name": "Approval",
      "type": "event"
    },
    {
      "anonymous": false,
      "inputs": [
        {
          "indexed": true,
          "internalType": "address",
          "name": "owner",
          "type": "address"
        },
        {
          "indexed": true,
          "internalType": "address",
          "name": "approved",
          "type": "address"
        },
        {
          "indexed": true,
          "internalType": "uint256",
          "name": "tokenId",
          "type": "uint256"
        }
      ],
      "name": "Approval",
      "type": "event"
    },
    {
      "anonymous": false,
      "inputs": [
        {
          "indexed": true,
          "internalType": "address",
          "name": "owner",
          "type": "address"
        },
        {
          "indexed": true,
          "internalType": "address",
          "name": "operator",
          "type": "address"
        },
        {
          "indexed": false,
          "internalType": "bool",
          "name": "approved",
          "type": "bool"
        }
      ],
      "name": "ApprovalForAll",
      "type": "event"
    },
    {
      "anonymous": false,
      "inputs": [
        {
          "indexed": true,
          "internalType": "address",
          "name": "_from",
          "type": "address"
        },
        {
          "indexed": true,
          "internalType": "address",
          "name": "_to",
          "type": "address"
        },
        {
          "indexed": false,
          "internalType": "string",
          "name": "_value",
          "type": "string"
        }
      ],
      "name": "Transfer",
      "type": "event"
    },
    {
      "anonymous": false,
      "inputs": [
        {
          "indexed": true,
          "internalType": "address",
          "name": "from",
          "type": "address"
        },
        {
          "indexed": true,
          "internalType": "address",
          "name": "to",
          "type": "address"
        },
        {
          "indexed": true,
          "internalType": "uint256",
          "name": "tokenId",
          "type": "uint256"
        }
      ],
      "name": "Transfer",
      "type": "event"
    },
    {
      "inputs": [
        {
          "internalType": "uint256",
          "name": "tokenId",
          "type": "uint256"
        }
      ],
      "name": "getApproved",
      "outputs": [
        {
          "internalType": "address",
          "name": "",
          "type": "address"
        }
      ],
      "stateMutability": "view",
      "type": "function"
    },
    {
      "inputs": [
        {
          "internalType": "address",
          "name": "owner",
          "type": "address"
        },
        {
          "internalType": "address",
          "name": "operator",
          "type": "address"
        }
      ],
      "name": "isApprovedForAll",
      "outputs": [
        {
          "internalType": "bool",
          "name": "",
          "type": "bool"
        }
      ],
      "stateMutability": "view",
      "type": "function"
    },
    {
      "inputs": [],
      "name": "name",
      "outputs": [
        {
          "internalType": "string",
          "name": "",
          "type": "string"
        }
      ],
      "stateMutability": "view",
      "type": "function"
    },
    {
      "inputs": [
        {
          "internalType": "address",
          "name": "from",
          "type": "address"
        },
        {
          "internalType": "address",
          "name": "to",
          "type": "address"
        },
        {
          "internalType": "uint256",
          "name": "tokenId",
          "type": "uint256"
        }
      ],
      "name": "safeTransferFrom",
      "outputs": [],
      "stateMutability": "nonpayable",
      "type": "function"
    },
    {
      "inputs": [
        {
          "internalType": "address",
          "name": "from",
          "type": "address"
        },
        {
          "internalType": "address",
          "name": "to",
          "type": "address"
        },
        {
          "internalType": "uint256",
          "name": "tokenId",
          "type": "uint256"
        },
        {
          "internalType": "bytes",
          "name": "_data",
          "type": "bytes"
        }
      ],
      "name": "safeTransferFrom",
      "outputs": [],
      "stateMutability": "nonpayable",
      "type": "function"
    },
    {
      "inputs": [
        {
          "internalType": "address",
          "name": "operator",
          "type": "address"
        },
        {
          "internalType": "bool",
          "name": "approved",
          "type": "bool"
        }
      ],
      "name": "setApprovalForAll",
      "outputs": [],
      "stateMutability": "nonpayable",
      "type": "function"
    },
    {
      "inputs": [
        {
          "internalType": "bytes4",
          "name": "interfaceId",
          "type": "bytes4"
        }
      ],
      "name": "supportsInterface",
      "outputs": [
        {
          "internalType": "bool",
          "name": "",
          "type": "bool"
        }
      ],
      "stateMutability": "view",
      "type": "function"
    },
    {
      "inputs": [],
      "name": "symbol",
      "outputs": [
        {
          "internalType": "string",
          "name": "",
          "type": "string"
        }
      ],
      "stateMutability": "view",
      "type": "function"
    },
    {
      "inputs": [
        {
          "internalType": "uint256",
          "name": "tokenId",
          "type": "uint256"
        }
      ],
      "name": "tokenURI",
      "outputs": [
        {
          "internalType": "string",
          "name": "",
          "type": "string"
        }
      ],
      "stateMutability": "view",
      "type": "function"
    },
    {
      "inputs": [
        {
          "internalType": "address",
          "name": "_owner",
          "type": "address"
        }
      ],
      "name": "balanceOf",
      "outputs": [
        {
          "internalType": "uint256",
          "name": "",
          "type": "uint256"
        }
      ],
      "stateMutability": "view",
      "type": "function"
    },
    {
      "inputs": [
        {
          "internalType": "uint256",
          "name": "tokenId",
          "type": "uint256"
        }
      ],
      "name": "ownerOf",
      "outputs": [
        {
          "internalType": "address",
          "name": "",
          "type": "address"
        }
      ],
      "stateMutability": "view",
      "type": "function"
    },
    {
      "inputs": [
        {
          "internalType": "string",
          "name": "_tokenId",
          "type": "string"
        }
      ],
      "name": "ownerOf",
      "outputs": [
        {
          "internalType": "address",
          "name": "",
          "type": "address"
        }
      ],
      "stateMutability": "view",
      "type": "function"
    },
    {
      "inputs": [
        {
          "internalType": "address",
          "name": "to",
          "type": "address"
        },
        {
          "internalType": "uint256",
          "name": "tokenId",
          "type": "uint256"
        }
      ],
      "name": "approve",
      "outputs": [],
      "stateMutability": "nonpayable",
      "type": "function"
    },
    {
      "inputs": [
        {
          "internalType": "address",
          "name": "_to",
          "type": "address"
        },
        {
          "internalType": "string",
          "name": "_tokenId",
          "type": "string"
        }
      ],
      "name": "approve",
      "outputs": [],
      "stateMutability": "nonpayable",
      "type": "function"
    },
    {
      "inputs": [
        {
          "internalType": "address",
          "name": "from",
          "type": "address"
        },
        {
          "internalType": "address",
          "name": "to",
          "type": "address"
        },
        {
          "internalType": "uint256",
          "name": "tokenId",
          "type": "uint256"
        }
      ],
      "name": "transferFrom",
      "outputs": [],
      "stateMutability": "nonpayable",
      "type": "function"
    },
    {
      "inputs": [
        {
          "internalType": "address",
          "name": "_from",
          "type": "address"
        },
        {
          "internalType": "address",
          "name": "_to",
          "type": "address"
        },
        {
          "internalType": "string",
          "name": "_tokenId",
          "type": "string"
        }
      ],
      "name": "transferFrom",
      "outputs": [],
      "stateMutability": "payable",
      "type": "function"
    },
    {
      "inputs": [
        {
          "internalType": "address",
          "name": "_recipient",
          "type": "address"
        },
        {
          "internalType": "string",
          "name": "_hash",
          "type": "string"
        }
      ],
      "name": "mint",
      "outputs": [],
      "stateMutability": "nonpayable",
      "type": "function"
    }
  ],
  "bytecode": "0x60806040523480156200001157600080fd5b506040518060400160405280600781526020017f4d65436f4e6674000000000000000000000000000000000000000000000000008152506040518060400160405280600781526020017f4d45434f4e465400000000000000000000000000000000000000000000000000815250816000908051906020019062000096929190620000b8565b508060019080519060200190620000af929190620000b8565b505050620001cd565b828054620000c69062000197565b90600052602060002090601f016020900481019282620000ea576000855562000136565b82601f106200010557805160ff191683800117855562000136565b8280016001018555821562000136579182015b828111156200013557825182559160200191906001019062000118565b5b50905062000145919062000149565b5090565b5b80821115620001645760008160009055506001016200014a565b5090565b7f4e487b7100000000000000000000000000000000000000000000000000000000600052602260045260246000fd5b60006002820490506001821680620001b057607f821691505b60208210811415620001c757620001c662000168565b5b50919050565b612e4280620001dd6000396000f3fe6080604052600436106100fe5760003560e01c80636352211e11610095578063a22cb46511610064578063a22cb4651461034a578063b88d4fde14610373578063c87b56dd1461039c578063d0def521146103d9578063e985e9c514610402576100fe565b80636352211e1461026857806370a08231146102a5578063920ffa26146102e257806395d89b411461031f576100fe565b806323b872dd116100d157806323b872dd146101d157806329cd00f7146101fa5780633ebfc9341461022357806342842e0e1461023f576100fe565b806301ffc9a71461010357806306fdde0314610140578063081812fc1461016b578063095ea7b3146101a8575b600080fd5b34801561010f57600080fd5b5061012a60048036038101906101259190611bb3565b61043f565b6040516101379190611bfb565b60405180910390f35b34801561014c57600080fd5b50610155610521565b6040516101629190611caf565b60405180910390f35b34801561017757600080fd5b50610192600480360381019061018d9190611d07565b6105b3565b60405161019f9190611d75565b60405180910390f35b3480156101b457600080fd5b506101cf60048036038101906101ca9190611dbc565b610638565b005b3480156101dd57600080fd5b506101f860048036038101906101f39190611dfc565b610750565b005b34801561020657600080fd5b50610221600480360381019061021c9190611f84565b6107b0565b005b61023d60048036038101906102389190611fe0565b610922565b005b34801561024b57600080fd5b5061026660048036038101906102619190611dfc565b610b93565b005b34801561027457600080fd5b5061028f600480360381019061028a9190611d07565b610bb3565b60405161029c9190611d75565b60405180910390f35b3480156102b157600080fd5b506102cc60048036038101906102c7919061204f565b610c65565b6040516102d9919061208b565b60405180910390f35b3480156102ee57600080fd5b50610309600480360381019061030491906120a6565b610cae565b6040516103169190611d75565b60405180910390f35b34801561032b57600080fd5b50610334610cf6565b6040516103419190611caf565b60405180910390f35b34801561035657600080fd5b50610371600480360381019061036c919061211b565b610d88565b005b34801561037f57600080fd5b5061039a600480360381019061039591906121fc565b610d9e565b005b3480156103a857600080fd5b506103c360048036038101906103be9190611d07565b610e00565b6040516103d09190611caf565b60405180910390f35b3480156103e557600080fd5b5061040060048036038101906103fb9190611f84565b610ea7565b005b34801561040e57600080fd5b506104296004803603810190610424919061227f565b6110eb565b6040516104369190611bfb565b60405180910390f35b60007f80ac58cd000000000000000000000000000000000000000000000000000000007bffffffffffffffffffffffffffffffffffffffffffffffffffffffff1916827bffffffffffffffffffffffffffffffffffffffffffffffffffffffff1916148061050a57507f5b5e139f000000000000000000000000000000000000000000000000000000007bffffffffffffffffffffffffffffffffffffffffffffffffffffffff1916827bffffffffffffffffffffffffffffffffffffffffffffffffffffffff1916145b8061051a57506105198261117f565b5b9050919050565b606060008054610530906122ee565b80601f016020809104026020016040519081016040528092919081815260200182805461055c906122ee565b80156105a95780601f1061057e576101008083540402835291602001916105a9565b820191906000526020600020905b81548152906001019060200180831161058c57829003601f168201915b5050505050905090565b60006105be826111e9565b6105fd576040517f08c379a00000000000000000000000000000000000000000000000000000000081526004016105f490612392565b60405180910390fd5b6004600083815260200190815260200160002060009054906101000a900473ffffffffffffffffffffffffffffffffffffffff169050919050565b600061064382610bb3565b90508073ffffffffffffffffffffffffffffffffffffffff168373ffffffffffffffffffffffffffffffffffffffff1614156106b4576040517f08c379a00000000000000000000000000000000000000000000000000000000081526004016106ab90612424565b60405180910390fd5b8073ffffffffffffffffffffffffffffffffffffffff166106d3611255565b73ffffffffffffffffffffffffffffffffffffffff1614806107025750610701816106fc611255565b6110eb565b5b610741576040517f08c379a0000000000000000000000000000000000000000000000000000000008152600401610738906124b6565b60405180910390fd5b61074b838361125d565b505050565b61076161075b611255565b82611316565b6107a0576040517f08c379a000000000000000000000000000000000000000000000000000000000815260040161079790612548565b60405180910390fd5b6107ab8383836113f4565b505050565b3373ffffffffffffffffffffffffffffffffffffffff166006826040516107d791906125a4565b908152602001604051809103902060009054906101000a900473ffffffffffffffffffffffffffffffffffffffff1673ffffffffffffffffffffffffffffffffffffffff161461085c576040517f08c379a000000000000000000000000000000000000000000000000000000000815260040161085390612607565b60405180910390fd5b8160088260405161086d91906125a4565b908152602001604051809103902060006101000a81548173ffffffffffffffffffffffffffffffffffffffff021916908373ffffffffffffffffffffffffffffffffffffffff1602179055508173ffffffffffffffffffffffffffffffffffffffff163373ffffffffffffffffffffffffffffffffffffffff167f1f84ad2a44b444ff59c84b14c29a0515df82fffbd26a5a923e601d8302872c91836040516109169190611caf565b60405180910390a35050565b3373ffffffffffffffffffffffffffffffffffffffff1660068260405161094991906125a4565b908152602001604051809103902060009054906101000a900473ffffffffffffffffffffffffffffffffffffffff1673ffffffffffffffffffffffffffffffffffffffff161480610a0357503373ffffffffffffffffffffffffffffffffffffffff166008826040516109bc91906125a4565b908152602001604051809103902060009054906101000a900473ffffffffffffffffffffffffffffffffffffffff1673ffffffffffffffffffffffffffffffffffffffff16145b610a42576040517f08c379a0000000000000000000000000000000000000000000000000000000008152600401610a3990612673565b60405180910390fd5b662386f26fc100003414610a8b576040517f08c379a0000000000000000000000000000000000000000000000000000000008152600401610a82906126df565b60405180910390fd5b81600682604051610a9c91906125a4565b908152602001604051809103902060006101000a81548173ffffffffffffffffffffffffffffffffffffffff021916908373ffffffffffffffffffffffffffffffffffffffff160217905550600881604051610af891906125a4565b908152602001604051809103902060006101000a81549073ffffffffffffffffffffffffffffffffffffffff02191690558173ffffffffffffffffffffffffffffffffffffffff168373ffffffffffffffffffffffffffffffffffffffff167f55e10366a5f552746106978b694d7ef3bbddec06bd5f9b9d15ad46f475c653ef83604051610b869190611caf565b60405180910390a3505050565b610bae83838360405180602001604052806000815250610d9e565b505050565b6000806002600084815260200190815260200160002060009054906101000a900473ffffffffffffffffffffffffffffffffffffffff169050600073ffffffffffffffffffffffffffffffffffffffff168173ffffffffffffffffffffffffffffffffffffffff161415610c5c576040517f08c379a0000000000000000000000000000000000000000000000000000000008152600401610c5390612771565b60405180910390fd5b80915050919050565b6000600760008373ffffffffffffffffffffffffffffffffffffffff1673ffffffffffffffffffffffffffffffffffffffff168152602001908152602001600020549050919050565b6000600682604051610cc091906125a4565b908152602001604051809103902060009054906101000a900473ffffffffffffffffffffffffffffffffffffffff169050919050565b606060018054610d05906122ee565b80601f0160208091040260200160405190810160405280929190818152602001828054610d31906122ee565b8015610d7e5780601f10610d5357610100808354040283529160200191610d7e565b820191906000526020600020905b815481529060010190602001808311610d6157829003601f168201915b5050505050905090565b610d9a610d93611255565b8383611650565b5050565b610daf610da9611255565b83611316565b610dee576040517f08c379a0000000000000000000000000000000000000000000000000000000008152600401610de590612548565b60405180910390fd5b610dfa848484846117bd565b50505050565b6060610e0b826111e9565b610e4a576040517f08c379a0000000000000000000000000000000000000000000000000000000008152600401610e4190612803565b60405180910390fd5b6000610e54611819565b90506000815111610e745760405180602001604052806000815250610e9f565b80610e7e84611830565b604051602001610e8f929190612823565b6040516020818303038152906040525b915050919050565b600073ffffffffffffffffffffffffffffffffffffffff168273ffffffffffffffffffffffffffffffffffffffff161415610ee157600080fd5b600073ffffffffffffffffffffffffffffffffffffffff16600682604051610f0991906125a4565b908152602001604051809103902060009054906101000a900473ffffffffffffffffffffffffffffffffffffffff1673ffffffffffffffffffffffffffffffffffffffff1614610f8e576040517f08c379a0000000000000000000000000000000000000000000000000000000008152600401610f8590612893565b60405180910390fd5b81600682604051610f9f91906125a4565b908152602001604051809103902060006101000a81548173ffffffffffffffffffffffffffffffffffffffff021916908373ffffffffffffffffffffffffffffffffffffffff16021790555061103e6001600760008573ffffffffffffffffffffffffffffffffffffffff1673ffffffffffffffffffffffffffffffffffffffff1681526020019081526020016000205461199190919063ffffffff16565b600760008473ffffffffffffffffffffffffffffffffffffffff1673ffffffffffffffffffffffffffffffffffffffff168152602001908152602001600020819055508173ffffffffffffffffffffffffffffffffffffffff16600073ffffffffffffffffffffffffffffffffffffffff167f55e10366a5f552746106978b694d7ef3bbddec06bd5f9b9d15ad46f475c653ef836040516110df9190611caf565b60405180910390a35050565b6000600560008473ffffffffffffffffffffffffffffffffffffffff1673ffffffffffffffffffffffffffffffffffffffff16815260200190815260200160002060008373ffffffffffffffffffffffffffffffffffffffff1673ffffffffffffffffffffffffffffffffffffffff16815260200190815260200160002060009054906101000a900460ff16905092915050565b60007f01ffc9a7000000000000000000000000000000000000000000000000000000007bffffffffffffffffffffffffffffffffffffffffffffffffffffffff1916827bffffffffffffffffffffffffffffffffffffffffffffffffffffffff1916149050919050565b60008073ffffffffffffffffffffffffffffffffffffffff166002600084815260200190815260200160002060009054906101000a900473ffffffffffffffffffffffffffffffffffffffff1673ffffffffffffffffffffffffffffffffffffffff1614159050919050565b600033905090565b816004600083815260200190815260200160002060006101000a81548173ffffffffffffffffffffffffffffffffffffffff021916908373ffffffffffffffffffffffffffffffffffffffff160217905550808273ffffffffffffffffffffffffffffffffffffffff166112d083610bb3565b73ffffffffffffffffffffffffffffffffffffffff167f8c5be1e5ebec7d5bd14f71427d1e84f3dd0314c0f7b2291e5b200ac8c7c3b92560405160405180910390a45050565b6000611321826111e9565b611360576040517f08c379a000000000000000000000000000000000000000000000000000000000815260040161135790612925565b60405180910390fd5b600061136b83610bb3565b90508073ffffffffffffffffffffffffffffffffffffffff168473ffffffffffffffffffffffffffffffffffffffff1614806113da57508373ffffffffffffffffffffffffffffffffffffffff166113c2846105b3565b73ffffffffffffffffffffffffffffffffffffffff16145b806113eb57506113ea81856110eb565b5b91505092915050565b8273ffffffffffffffffffffffffffffffffffffffff1661141482610bb3565b73ffffffffffffffffffffffffffffffffffffffff161461146a576040517f08c379a0000000000000000000000000000000000000000000000000000000008152600401611461906129b7565b60405180910390fd5b600073ffffffffffffffffffffffffffffffffffffffff168273ffffffffffffffffffffffffffffffffffffffff1614156114da576040517f08c379a00000000000000000000000000000000000000000000000000000000081526004016114d190612a49565b60405180910390fd5b6114e58383836119a7565b6114f060008261125d565b6001600360008573ffffffffffffffffffffffffffffffffffffffff1673ffffffffffffffffffffffffffffffffffffffff16815260200190815260200160002060008282546115409190612a98565b925050819055506001600360008473ffffffffffffffffffffffffffffffffffffffff1673ffffffffffffffffffffffffffffffffffffffff16815260200190815260200160002060008282546115979190612acc565b92505081905550816002600083815260200190815260200160002060006101000a81548173ffffffffffffffffffffffffffffffffffffffff021916908373ffffffffffffffffffffffffffffffffffffffff160217905550808273ffffffffffffffffffffffffffffffffffffffff168473ffffffffffffffffffffffffffffffffffffffff167fddf252ad1be2c89b69c2b068fc378daa952ba7f163c4a11628f55a4df523b3ef60405160405180910390a4505050565b8173ffffffffffffffffffffffffffffffffffffffff168373ffffffffffffffffffffffffffffffffffffffff1614156116bf576040517f08c379a00000000000000000000000000000000000000000000000000000000081526004016116b690612b6e565b60405180910390fd5b80600560008573ffffffffffffffffffffffffffffffffffffffff1673ffffffffffffffffffffffffffffffffffffffff16815260200190815260200160002060008473ffffffffffffffffffffffffffffffffffffffff1673ffffffffffffffffffffffffffffffffffffffff16815260200190815260200160002060006101000a81548160ff0219169083151502179055508173ffffffffffffffffffffffffffffffffffffffff168373ffffffffffffffffffffffffffffffffffffffff167f17307eab39ab6107e8899845ad3d59bd9653f200f220920489ca2b5937696c31836040516117b09190611bfb565b60405180910390a3505050565b6117c88484846113f4565b6117d4848484846119ac565b611813576040517f08c379a000000000000000000000000000000000000000000000000000000000815260040161180a90612c00565b60405180910390fd5b50505050565b606060405180602001604052806000815250905090565b60606000821415611878576040518060400160405280600181526020017f3000000000000000000000000000000000000000000000000000000000000000815250905061198c565b600082905060005b600082146118aa57808061189390612c20565b915050600a826118a39190612c98565b9150611880565b60008167ffffffffffffffff8111156118c6576118c5611e59565b5b6040519080825280601f01601f1916602001820160405280156118f85781602001600182028036833780820191505090505b5090505b60008514611985576001826119119190612a98565b9150600a856119209190612cc9565b603061192c9190612acc565b60f81b81838151811061194257611941612cfa565b5b60200101907effffffffffffffffffffffffffffffffffffffffffffffffffffffffffffff1916908160001a905350600a8561197e9190612c98565b94506118fc565b8093505050505b919050565b6000818361199f9190612acc565b905092915050565b505050565b60006119cd8473ffffffffffffffffffffffffffffffffffffffff16611b34565b15611b27578373ffffffffffffffffffffffffffffffffffffffff1663150b7a026119f6611255565b8786866040518563ffffffff1660e01b8152600401611a189493929190612d7e565b6020604051808303816000875af1925050508015611a5457506040513d601f19601f82011682018060405250810190611a519190612ddf565b60015b611ad7573d8060008114611a84576040519150601f19603f3d011682016040523d82523d6000602084013e611a89565b606091505b50600081511415611acf576040517f08c379a0000000000000000000000000000000000000000000000000000000008152600401611ac690612c00565b60405180910390fd5b805181602001fd5b63150b7a0260e01b7bffffffffffffffffffffffffffffffffffffffffffffffffffffffff1916817bffffffffffffffffffffffffffffffffffffffffffffffffffffffff191614915050611b2c565b600190505b949350505050565b600080823b905060008111915050919050565b6000604051905090565b600080fd5b600080fd5b60007fffffffff0000000000000000000000000000000000000000000000000000000082169050919050565b611b9081611b5b565b8114611b9b57600080fd5b50565b600081359050611bad81611b87565b92915050565b600060208284031215611bc957611bc8611b51565b5b6000611bd784828501611b9e565b91505092915050565b60008115159050919050565b611bf581611be0565b82525050565b6000602082019050611c106000830184611bec565b92915050565b600081519050919050565b600082825260208201905092915050565b60005b83811015611c50578082015181840152602081019050611c35565b83811115611c5f576000848401525b50505050565b6000601f19601f8301169050919050565b6000611c8182611c16565b611c8b8185611c21565b9350611c9b818560208601611c32565b611ca481611c65565b840191505092915050565b60006020820190508181036000830152611cc98184611c76565b905092915050565b6000819050919050565b611ce481611cd1565b8114611cef57600080fd5b50565b600081359050611d0181611cdb565b92915050565b600060208284031215611d1d57611d1c611b51565b5b6000611d2b84828501611cf2565b91505092915050565b600073ffffffffffffffffffffffffffffffffffffffff82169050919050565b6000611d5f82611d34565b9050919050565b611d6f81611d54565b82525050565b6000602082019050611d8a6000830184611d66565b92915050565b611d9981611d54565b8114611da457600080fd5b50565b600081359050611db681611d90565b92915050565b60008060408385031215611dd357611dd2611b51565b5b6000611de185828601611da7565b9250506020611df285828601611cf2565b9150509250929050565b600080600060608486031215611e1557611e14611b51565b5b6000611e2386828701611da7565b9350506020611e3486828701611da7565b9250506040611e4586828701611cf2565b9150509250925092565b600080fd5b600080fd5b7f4e487b7100000000000000000000000000000000000000000000000000000000600052604160045260246000fd5b611e9182611c65565b810181811067ffffffffffffffff82111715611eb057611eaf611e59565b5b80604052505050565b6000611ec3611b47565b9050611ecf8282611e88565b919050565b600067ffffffffffffffff821115611eef57611eee611e59565b5b611ef882611c65565b9050602081019050919050565b82818337600083830152505050565b6000611f27611f2284611ed4565b611eb9565b905082815260208101848484011115611f4357611f42611e54565b5b611f4e848285611f05565b509392505050565b600082601f830112611f6b57611f6a611e4f565b5b8135611f7b848260208601611f14565b91505092915050565b60008060408385031215611f9b57611f9a611b51565b5b6000611fa985828601611da7565b925050602083013567ffffffffffffffff811115611fca57611fc9611b56565b5b611fd685828601611f56565b9150509250929050565b600080600060608486031215611ff957611ff8611b51565b5b600061200786828701611da7565b935050602061201886828701611da7565b925050604084013567ffffffffffffffff81111561203957612038611b56565b5b61204586828701611f56565b9150509250925092565b60006020828403121561206557612064611b51565b5b600061207384828501611da7565b91505092915050565b61208581611cd1565b82525050565b60006020820190506120a0600083018461207c565b92915050565b6000602082840312156120bc576120bb611b51565b5b600082013567ffffffffffffffff8111156120da576120d9611b56565b5b6120e684828501611f56565b91505092915050565b6120f881611be0565b811461210357600080fd5b50565b600081359050612115816120ef565b92915050565b6000806040838503121561213257612131611b51565b5b600061214085828601611da7565b925050602061215185828601612106565b9150509250929050565b600067ffffffffffffffff82111561217657612175611e59565b5b61217f82611c65565b9050602081019050919050565b600061219f61219a8461215b565b611eb9565b9050828152602081018484840111156121bb576121ba611e54565b5b6121c6848285611f05565b509392505050565b600082601f8301126121e3576121e2611e4f565b5b81356121f384826020860161218c565b91505092915050565b6000806000806080858703121561221657612215611b51565b5b600061222487828801611da7565b945050602061223587828801611da7565b935050604061224687828801611cf2565b925050606085013567ffffffffffffffff81111561226757612266611b56565b5b612273878288016121ce565b91505092959194509250565b6000806040838503121561229657612295611b51565b5b60006122a485828601611da7565b92505060206122b585828601611da7565b9150509250929050565b7f4e487b7100000000000000000000000000000000000000000000000000000000600052602260045260246000fd5b6000600282049050600182168061230657607f821691505b6020821081141561231a576123196122bf565b5b50919050565b7f4552433732313a20617070726f76656420717565727920666f72206e6f6e657860008201527f697374656e7420746f6b656e0000000000000000000000000000000000000000602082015250565b600061237c602c83611c21565b915061238782612320565b604082019050919050565b600060208201905081810360008301526123ab8161236f565b9050919050565b7f4552433732313a20617070726f76616c20746f2063757272656e74206f776e6560008201527f7200000000000000000000000000000000000000000000000000000000000000602082015250565b600061240e602183611c21565b9150612419826123b2565b604082019050919050565b6000602082019050818103600083015261243d81612401565b9050919050565b7f4552433732313a20617070726f76652063616c6c6572206973206e6f74206f7760008201527f6e6572206e6f7220617070726f76656420666f7220616c6c0000000000000000602082015250565b60006124a0603883611c21565b91506124ab82612444565b604082019050919050565b600060208201905081810360008301526124cf81612493565b9050919050565b7f4552433732313a207472616e736665722063616c6c6572206973206e6f74206f60008201527f776e6572206e6f7220617070726f766564000000000000000000000000000000602082015250565b6000612532603183611c21565b915061253d826124d6565b604082019050919050565b6000602082019050818103600083015261256181612525565b9050919050565b600081905092915050565b600061257e82611c16565b6125888185612568565b9350612598818560208601611c32565b80840191505092915050565b60006125b08284612573565b915081905092915050565b7f6e6f74207065726d697474656400000000000000000000000000000000000000600082015250565b60006125f1600d83611c21565b91506125fc826125bb565b602082019050919050565b60006020820190508181036000830152612620816125e4565b9050919050565b7f6f7065726174696f6e206e6f74207065726d6974746564000000000000000000600082015250565b600061265d601783611c21565b915061266882612627565b602082019050919050565b6000602082019050818103600083015261268c81612650565b9050919050565b7f5472616e7366657220636f73747320302e303120455448000000000000000000600082015250565b60006126c9601783611c21565b91506126d482612693565b602082019050919050565b600060208201905081810360008301526126f8816126bc565b9050919050565b7f4552433732313a206f776e657220717565727920666f72206e6f6e657869737460008201527f656e7420746f6b656e0000000000000000000000000000000000000000000000602082015250565b600061275b602983611c21565b9150612766826126ff565b604082019050919050565b6000602082019050818103600083015261278a8161274e565b9050919050565b7f4552433732314d657461646174613a2055524920717565727920666f72206e6f60008201527f6e6578697374656e7420746f6b656e0000000000000000000000000000000000602082015250565b60006127ed602f83611c21565b91506127f882612791565b604082019050919050565b6000602082019050818103600083015261281c816127e0565b9050919050565b600061282f8285612573565b915061283b8284612573565b91508190509392505050565b7f6861736820616c72656164792065786973747300000000000000000000000000600082015250565b600061287d601383611c21565b915061288882612847565b602082019050919050565b600060208201905081810360008301526128ac81612870565b9050919050565b7f4552433732313a206f70657261746f7220717565727920666f72206e6f6e657860008201527f697374656e7420746f6b656e0000000000000000000000000000000000000000602082015250565b600061290f602c83611c21565b915061291a826128b3565b604082019050919050565b6000602082019050818103600083015261293e81612902565b9050919050565b7f4552433732313a207472616e73666572206f6620746f6b656e2074686174206960008201527f73206e6f74206f776e0000000000000000000000000000000000000000000000602082015250565b60006129a1602983611c21565b91506129ac82612945565b604082019050919050565b600060208201905081810360008301526129d081612994565b9050919050565b7f4552433732313a207472616e7366657220746f20746865207a65726f2061646460008201527f7265737300000000000000000000000000000000000000000000000000000000602082015250565b6000612a33602483611c21565b9150612a3e826129d7565b604082019050919050565b60006020820190508181036000830152612a6281612a26565b9050919050565b7f4e487b7100000000000000000000000000000000000000000000000000000000600052601160045260246000fd5b6000612aa382611cd1565b9150612aae83611cd1565b925082821015612ac157612ac0612a69565b5b828203905092915050565b6000612ad782611cd1565b9150612ae283611cd1565b9250827fffffffffffffffffffffffffffffffffffffffffffffffffffffffffffffffff03821115612b1757612b16612a69565b5b828201905092915050565b7f4552433732313a20617070726f766520746f2063616c6c657200000000000000600082015250565b6000612b58601983611c21565b9150612b6382612b22565b602082019050919050565b60006020820190508181036000830152612b8781612b4b565b9050919050565b7f4552433732313a207472616e7366657220746f206e6f6e20455243373231526560008201527f63656976657220696d706c656d656e7465720000000000000000000000000000602082015250565b6000612bea603283611c21565b9150612bf582612b8e565b604082019050919050565b60006020820190508181036000830152612c1981612bdd565b9050919050565b6000612c2b82611cd1565b91507fffffffffffffffffffffffffffffffffffffffffffffffffffffffffffffffff821415612c5e57612c5d612a69565b5b600182019050919050565b7f4e487b7100000000000000000000000000000000000000000000000000000000600052601260045260246000fd5b6000612ca382611cd1565b9150612cae83611cd1565b925082612cbe57612cbd612c69565b5b828204905092915050565b6000612cd482611cd1565b9150612cdf83611cd1565b925082612cef57612cee612c69565b5b828206905092915050565b7f4e487b7100000000000000000000000000000000000000000000000000000000600052603260045260246000fd5b600081519050919050565b600082825260208201905092915050565b6000612d5082612d29565b612d5a8185612d34565b9350612d6a818560208601611c32565b612d7381611c65565b840191505092915050565b6000608082019050612d936000830187611d66565b612da06020830186611d66565b612dad604083018561207c565b8181036060830152612dbf8184612d45565b905095945050505050565b600081519050612dd981611b87565b92915050565b600060208284031215612df557612df4611b51565b5b6000612e0384828501612dca565b9150509291505056fea26469706673582212209119f8b9b67666fd697f9f1a6fa86aaaae800c83568e331e0bec4ea13d6b418c64736f6c634300080a0033",
  "immutableReferences": {},
  "source": "// SPDX-License-Identifier: MIT\npragma solidity >=0.4.22 <0.9.0;\n\nimport \"@openzeppelin/contracts/token/ERC721/ERC721.sol\";\nimport \"@openzeppelin/contracts/utils/math/safemath.sol\";\n\ncontract MecoNftFactory is ERC721 {\n    using SafeMath for uint;\n\n    mapping(string => address) tokenToOwner;\n    mapping(address => uint) ownerTokenCount;\n    mapping(string => address) approvals;\n\n    event Transfer(address indexed _from, address indexed _to, string _value);\n    event Approval(\n        address indexed _owner,\n        address indexed _spender,\n        string _value\n    );\n\n    constructor() ERC721(\"MeCoNft\", \"MECONFT\") {}\n\n    function balanceOf(address _owner) public view override returns (uint256) {\n        return ownerTokenCount[_owner];\n    }\n\n    function ownerOf(string memory _tokenId) public view returns (address) {\n        return tokenToOwner[_tokenId];\n    }\n\n    function approve(address _to, string memory _tokenId) external {\n        require(tokenToOwner[_tokenId] == msg.sender, \"not permitted\");\n        approvals[_tokenId] = _to;\n        emit Approval(msg.sender, _to, _tokenId);\n    }\n\n    function transferFrom(\n        address _from,\n        address _to,\n        string memory _tokenId\n    ) external payable {\n        require(\n            (tokenToOwner[_tokenId] == msg.sender ||\n                approvals[_tokenId] == msg.sender),\n            \"operation not permitted\"\n        );\n        require(msg.value == 10000000 gwei, \"Transfer costs 0.01 ETH\");\n        tokenToOwner[_tokenId] = _to;\n        delete approvals[_tokenId];\n        emit Transfer(_from, _to, _tokenId);\n    }\n\n    function mint(address _recipient, string memory _hash) external {\n        require(_recipient != address(0));\n        require(tokenToOwner[_hash] == address(0), \"hash already exists\");\n        tokenToOwner[_hash] = _recipient;\n        ownerTokenCount[_recipient] = ownerTokenCount[_recipient].add(1);\n        emit Transfer(address(0), _recipient, _hash);\n    }\n}\n",
  "sourcePath": "/Users/edesimon/Repos/blockchain/nft-app/contracts/_MecoNftFactory.sol",
  "compiler": {
    "name": "solc",
    "version": "0.8.10+commit.fc410830.Emscripten.clang"
  },
  "schemaVersion": "3.4.3",
  "updatedAt": "2022-01-25T11:00:22.161Z",
  "devdoc": {
    "kind": "dev",
    "methods": {
      "approve(address,uint256)": {
        "details": "See {IERC721-approve}."
      },
      "getApproved(uint256)": {
        "details": "See {IERC721-getApproved}."
      },
      "isApprovedForAll(address,address)": {
        "details": "See {IERC721-isApprovedForAll}."
      },
      "name()": {
        "details": "See {IERC721Metadata-name}."
      },
      "ownerOf(uint256)": {
        "details": "See {IERC721-ownerOf}."
      },
      "safeTransferFrom(address,address,uint256)": {
        "details": "See {IERC721-safeTransferFrom}."
      },
      "safeTransferFrom(address,address,uint256,bytes)": {
        "details": "See {IERC721-safeTransferFrom}."
      },
      "setApprovalForAll(address,bool)": {
        "details": "See {IERC721-setApprovalForAll}."
      },
      "supportsInterface(bytes4)": {
        "details": "See {IERC165-supportsInterface}."
      },
      "symbol()": {
        "details": "See {IERC721Metadata-symbol}."
      },
      "tokenURI(uint256)": {
        "details": "See {IERC721Metadata-tokenURI}."
      },
      "transferFrom(address,address,uint256)": {
        "details": "See {IERC721-transferFrom}."
      }
    },
    "version": 1
  },
  "userdoc": {
    "kind": "user",
    "methods": {},
    "version": 1
  }
}