{
  "contractName": "MeCoNFT",
  "abi": [
    {
      "inputs": [],
      "stateMutability": "nonpayable",
      "type": "constructor"
    },
    {
      "anonymous": false,
      "inputs": [
        {
          "indexed": true,
          "internalType": "address",
          "name": "owner",
          "type": "address"
        },
        {
          "indexed": true,
          "internalType": "address",
          "name": "approved",
          "type": "address"
        },
        {
          "indexed": true,
          "internalType": "uint256",
          "name": "tokenId",
          "type": "uint256"
        }
      ],
      "name": "Approval",
      "type": "event"
    },
    {
      "anonymous": false,
      "inputs": [
        {
          "indexed": true,
          "internalType": "address",
          "name": "owner",
          "type": "address"
        },
        {
          "indexed": true,
          "internalType": "address",
          "name": "operator",
          "type": "address"
        },
        {
          "indexed": false,
          "internalType": "bool",
          "name": "approved",
          "type": "bool"
        }
      ],
      "name": "ApprovalForAll",
      "type": "event"
    },
    {
      "anonymous": false,
      "inputs": [
        {
          "indexed": true,
          "internalType": "address",
          "name": "previousOwner",
          "type": "address"
        },
        {
          "indexed": true,
          "internalType": "address",
          "name": "newOwner",
          "type": "address"
        }
      ],
      "name": "OwnershipTransferred",
      "type": "event"
    },
    {
      "anonymous": false,
      "inputs": [
        {
          "indexed": true,
          "internalType": "address",
          "name": "from",
          "type": "address"
        },
        {
          "indexed": true,
          "internalType": "address",
          "name": "to",
          "type": "address"
        },
        {
          "indexed": true,
          "internalType": "uint256",
          "name": "tokenId",
          "type": "uint256"
        }
      ],
      "name": "Transfer",
      "type": "event"
    },
    {
      "inputs": [
        {
          "internalType": "address",
          "name": "to",
          "type": "address"
        },
        {
          "internalType": "uint256",
          "name": "tokenId",
          "type": "uint256"
        }
      ],
      "name": "approve",
      "outputs": [],
      "stateMutability": "nonpayable",
      "type": "function"
    },
    {
      "inputs": [
        {
          "internalType": "address",
          "name": "owner",
          "type": "address"
        }
      ],
      "name": "balanceOf",
      "outputs": [
        {
          "internalType": "uint256",
          "name": "",
          "type": "uint256"
        }
      ],
      "stateMutability": "view",
      "type": "function",
      "constant": true
    },
    {
      "inputs": [
        {
          "internalType": "uint256",
          "name": "tokenId",
          "type": "uint256"
        }
      ],
      "name": "getApproved",
      "outputs": [
        {
          "internalType": "address",
          "name": "",
          "type": "address"
        }
      ],
      "stateMutability": "view",
      "type": "function",
      "constant": true
    },
    {
      "inputs": [
        {
          "internalType": "address",
          "name": "owner",
          "type": "address"
        },
        {
          "internalType": "address",
          "name": "operator",
          "type": "address"
        }
      ],
      "name": "isApprovedForAll",
      "outputs": [
        {
          "internalType": "bool",
          "name": "",
          "type": "bool"
        }
      ],
      "stateMutability": "view",
      "type": "function",
      "constant": true
    },
    {
      "inputs": [],
      "name": "name",
      "outputs": [
        {
          "internalType": "string",
          "name": "",
          "type": "string"
        }
      ],
      "stateMutability": "view",
      "type": "function",
      "constant": true
    },
    {
      "inputs": [],
      "name": "owner",
      "outputs": [
        {
          "internalType": "address",
          "name": "",
          "type": "address"
        }
      ],
      "stateMutability": "view",
      "type": "function",
      "constant": true
    },
    {
      "inputs": [
        {
          "internalType": "uint256",
          "name": "tokenId",
          "type": "uint256"
        }
      ],
      "name": "ownerOf",
      "outputs": [
        {
          "internalType": "address",
          "name": "",
          "type": "address"
        }
      ],
      "stateMutability": "view",
      "type": "function",
      "constant": true
    },
    {
      "inputs": [],
      "name": "renounceOwnership",
      "outputs": [],
      "stateMutability": "nonpayable",
      "type": "function"
    },
    {
      "inputs": [
        {
          "internalType": "address",
          "name": "from",
          "type": "address"
        },
        {
          "internalType": "address",
          "name": "to",
          "type": "address"
        },
        {
          "internalType": "uint256",
          "name": "tokenId",
          "type": "uint256"
        }
      ],
      "name": "safeTransferFrom",
      "outputs": [],
      "stateMutability": "nonpayable",
      "type": "function"
    },
    {
      "inputs": [
        {
          "internalType": "address",
          "name": "from",
          "type": "address"
        },
        {
          "internalType": "address",
          "name": "to",
          "type": "address"
        },
        {
          "internalType": "uint256",
          "name": "tokenId",
          "type": "uint256"
        },
        {
          "internalType": "bytes",
          "name": "_data",
          "type": "bytes"
        }
      ],
      "name": "safeTransferFrom",
      "outputs": [],
      "stateMutability": "nonpayable",
      "type": "function"
    },
    {
      "inputs": [
        {
          "internalType": "address",
          "name": "operator",
          "type": "address"
        },
        {
          "internalType": "bool",
          "name": "approved",
          "type": "bool"
        }
      ],
      "name": "setApprovalForAll",
      "outputs": [],
      "stateMutability": "nonpayable",
      "type": "function"
    },
    {
      "inputs": [
        {
          "internalType": "bytes4",
          "name": "interfaceId",
          "type": "bytes4"
        }
      ],
      "name": "supportsInterface",
      "outputs": [
        {
          "internalType": "bool",
          "name": "",
          "type": "bool"
        }
      ],
      "stateMutability": "view",
      "type": "function",
      "constant": true
    },
    {
      "inputs": [],
      "name": "symbol",
      "outputs": [
        {
          "internalType": "string",
          "name": "",
          "type": "string"
        }
      ],
      "stateMutability": "view",
      "type": "function",
      "constant": true
    },
    {
      "inputs": [
        {
          "internalType": "uint256",
          "name": "tokenId",
          "type": "uint256"
        }
      ],
      "name": "tokenURI",
      "outputs": [
        {
          "internalType": "string",
          "name": "",
          "type": "string"
        }
      ],
      "stateMutability": "view",
      "type": "function",
      "constant": true
    },
    {
      "inputs": [
        {
          "internalType": "address",
          "name": "from",
          "type": "address"
        },
        {
          "internalType": "address",
          "name": "to",
          "type": "address"
        },
        {
          "internalType": "uint256",
          "name": "tokenId",
          "type": "uint256"
        }
      ],
      "name": "transferFrom",
      "outputs": [],
      "stateMutability": "nonpayable",
      "type": "function"
    },
    {
      "inputs": [
        {
          "internalType": "address",
          "name": "newOwner",
          "type": "address"
        }
      ],
      "name": "transferOwnership",
      "outputs": [],
      "stateMutability": "nonpayable",
      "type": "function"
    },
    {
      "inputs": [
        {
          "internalType": "address",
          "name": "receiver",
          "type": "address"
        },
        {
          "internalType": "string",
          "name": "tokenURI",
          "type": "string"
        }
      ],
      "name": "mintNft",
      "outputs": [
        {
          "internalType": "uint256",
          "name": "",
          "type": "uint256"
        }
      ],
      "stateMutability": "nonpayable",
      "type": "function"
    }
  ],
  "bytecode": "0x60806040523480156200001157600080fd5b506040518060400160405280600781526020017f4d65436f4e4654000000000000000000000000000000000000000000000000008152506040518060400160405280600781526020017f4d45434f4e465400000000000000000000000000000000000000000000000000815250816000908051906020019062000096929190620001a6565b508060019080519060200190620000af929190620001a6565b505050620000d2620000c6620000d860201b60201c565b620000e060201b60201c565b620002bb565b600033905090565b6000600660009054906101000a900473ffffffffffffffffffffffffffffffffffffffff16905081600660006101000a81548173ffffffffffffffffffffffffffffffffffffffff021916908373ffffffffffffffffffffffffffffffffffffffff1602179055508173ffffffffffffffffffffffffffffffffffffffff168173ffffffffffffffffffffffffffffffffffffffff167f8be0079c531659141344cd1fd0a4f28419497f9722a3daafe3b4186f6b6457e060405160405180910390a35050565b828054620001b49062000285565b90600052602060002090601f016020900481019282620001d8576000855562000224565b82601f10620001f357805160ff191683800117855562000224565b8280016001018555821562000224579182015b828111156200022357825182559160200191906001019062000206565b5b50905062000233919062000237565b5090565b5b808211156200025257600081600090555060010162000238565b5090565b7f4e487b7100000000000000000000000000000000000000000000000000000000600052602260045260246000fd5b600060028204905060018216806200029e57607f821691505b60208210811415620002b557620002b462000256565b5b50919050565b612e0180620002cb6000396000f3fe608060405234801561001057600080fd5b506004361061010b5760003560e01c806370a08231116100a2578063a22cb46511610071578063a22cb465146102b8578063b88d4fde146102d4578063c87b56dd146102f0578063e985e9c514610320578063f2fde38b146103505761010b565b806370a0823114610242578063715018a6146102725780638da5cb5b1461027c57806395d89b411461029a5761010b565b806311f87b19116100de57806311f87b19146101aa57806323b872dd146101da57806342842e0e146101f65780636352211e146102125761010b565b806301ffc9a71461011057806306fdde0314610140578063081812fc1461015e578063095ea7b31461018e575b600080fd5b61012a60048036038101906101259190611af7565b61036c565b6040516101379190611b3f565b60405180910390f35b61014861044e565b6040516101559190611bf3565b60405180910390f35b61017860048036038101906101739190611c4b565b6104e0565b6040516101859190611cb9565b60405180910390f35b6101a860048036038101906101a39190611d00565b610565565b005b6101c460048036038101906101bf9190611e75565b61067d565b6040516101d19190611ee0565b60405180910390f35b6101f460048036038101906101ef9190611efb565b610731565b005b610210600480360381019061020b9190611efb565b610791565b005b61022c60048036038101906102279190611c4b565b6107b1565b6040516102399190611cb9565b60405180910390f35b61025c60048036038101906102579190611f4e565b610863565b6040516102699190611ee0565b60405180910390f35b61027a61091b565b005b6102846109a3565b6040516102919190611cb9565b60405180910390f35b6102a26109cd565b6040516102af9190611bf3565b60405180910390f35b6102d260048036038101906102cd9190611fa7565b610a5f565b005b6102ee60048036038101906102e99190612088565b610a75565b005b61030a60048036038101906103059190611c4b565b610ad7565b6040516103179190611bf3565b60405180910390f35b61033a6004803603810190610335919061210b565b610b7e565b6040516103479190611b3f565b60405180910390f35b61036a60048036038101906103659190611f4e565b610c12565b005b60007f80ac58cd000000000000000000000000000000000000000000000000000000007bffffffffffffffffffffffffffffffffffffffffffffffffffffffff1916827bffffffffffffffffffffffffffffffffffffffffffffffffffffffff1916148061043757507f5b5e139f000000000000000000000000000000000000000000000000000000007bffffffffffffffffffffffffffffffffffffffffffffffffffffffff1916827bffffffffffffffffffffffffffffffffffffffffffffffffffffffff1916145b80610447575061044682610d0a565b5b9050919050565b60606000805461045d9061217a565b80601f01602080910402602001604051908101604052809291908181526020018280546104899061217a565b80156104d65780601f106104ab576101008083540402835291602001916104d6565b820191906000526020600020905b8154815290600101906020018083116104b957829003601f168201915b5050505050905090565b60006104eb82610d74565b61052a576040517f08c379a00000000000000000000000000000000000000000000000000000000081526004016105219061221e565b60405180910390fd5b6004600083815260200190815260200160002060009054906101000a900473ffffffffffffffffffffffffffffffffffffffff169050919050565b6000610570826107b1565b90508073ffffffffffffffffffffffffffffffffffffffff168373ffffffffffffffffffffffffffffffffffffffff1614156105e1576040517f08c379a00000000000000000000000000000000000000000000000000000000081526004016105d8906122b0565b60405180910390fd5b8073ffffffffffffffffffffffffffffffffffffffff16610600610de0565b73ffffffffffffffffffffffffffffffffffffffff16148061062f575061062e81610629610de0565b610b7e565b5b61066e576040517f08c379a000000000000000000000000000000000000000000000000000000000815260040161066590612342565b60405180910390fd5b6106788383610de8565b505050565b6000610687610de0565b73ffffffffffffffffffffffffffffffffffffffff166106a56109a3565b73ffffffffffffffffffffffffffffffffffffffff16146106fb576040517f08c379a00000000000000000000000000000000000000000000000000000000081526004016106f2906123ae565b60405180910390fd5b6107056007610ea1565b60006107116007610eb7565b905061071d8482610ec5565b6107278184611093565b8091505092915050565b61074261073c610de0565b82611107565b610781576040517f08c379a000000000000000000000000000000000000000000000000000000000815260040161077890612440565b60405180910390fd5b61078c8383836111e5565b505050565b6107ac83838360405180602001604052806000815250610a75565b505050565b6000806002600084815260200190815260200160002060009054906101000a900473ffffffffffffffffffffffffffffffffffffffff169050600073ffffffffffffffffffffffffffffffffffffffff168173ffffffffffffffffffffffffffffffffffffffff16141561085a576040517f08c379a0000000000000000000000000000000000000000000000000000000008152600401610851906124d2565b60405180910390fd5b80915050919050565b60008073ffffffffffffffffffffffffffffffffffffffff168273ffffffffffffffffffffffffffffffffffffffff1614156108d4576040517f08c379a00000000000000000000000000000000000000000000000000000000081526004016108cb90612564565b60405180910390fd5b600360008373ffffffffffffffffffffffffffffffffffffffff1673ffffffffffffffffffffffffffffffffffffffff168152602001908152602001600020549050919050565b610923610de0565b73ffffffffffffffffffffffffffffffffffffffff166109416109a3565b73ffffffffffffffffffffffffffffffffffffffff1614610997576040517f08c379a000000000000000000000000000000000000000000000000000000000815260040161098e906123ae565b60405180910390fd5b6109a16000611441565b565b6000600660009054906101000a900473ffffffffffffffffffffffffffffffffffffffff16905090565b6060600180546109dc9061217a565b80601f0160208091040260200160405190810160405280929190818152602001828054610a089061217a565b8015610a555780601f10610a2a57610100808354040283529160200191610a55565b820191906000526020600020905b815481529060010190602001808311610a3857829003601f168201915b5050505050905090565b610a71610a6a610de0565b8383611507565b5050565b610a86610a80610de0565b83611107565b610ac5576040517f08c379a0000000000000000000000000000000000000000000000000000000008152600401610abc90612440565b60405180910390fd5b610ad184848484611674565b50505050565b6060610ae282610d74565b610b21576040517f08c379a0000000000000000000000000000000000000000000000000000000008152600401610b18906125f6565b60405180910390fd5b6000610b2b6116d0565b90506000815111610b4b5760405180602001604052806000815250610b76565b80610b55846116e7565b604051602001610b66929190612652565b6040516020818303038152906040525b915050919050565b6000600560008473ffffffffffffffffffffffffffffffffffffffff1673ffffffffffffffffffffffffffffffffffffffff16815260200190815260200160002060008373ffffffffffffffffffffffffffffffffffffffff1673ffffffffffffffffffffffffffffffffffffffff16815260200190815260200160002060009054906101000a900460ff16905092915050565b610c1a610de0565b73ffffffffffffffffffffffffffffffffffffffff16610c386109a3565b73ffffffffffffffffffffffffffffffffffffffff1614610c8e576040517f08c379a0000000000000000000000000000000000000000000000000000000008152600401610c85906123ae565b60405180910390fd5b600073ffffffffffffffffffffffffffffffffffffffff168173ffffffffffffffffffffffffffffffffffffffff161415610cfe576040517f08c379a0000000000000000000000000000000000000000000000000000000008152600401610cf5906126e8565b60405180910390fd5b610d0781611441565b50565b60007f01ffc9a7000000000000000000000000000000000000000000000000000000007bffffffffffffffffffffffffffffffffffffffffffffffffffffffff1916827bffffffffffffffffffffffffffffffffffffffffffffffffffffffff1916149050919050565b60008073ffffffffffffffffffffffffffffffffffffffff166002600084815260200190815260200160002060009054906101000a900473ffffffffffffffffffffffffffffffffffffffff1673ffffffffffffffffffffffffffffffffffffffff1614159050919050565b600033905090565b816004600083815260200190815260200160002060006101000a81548173ffffffffffffffffffffffffffffffffffffffff021916908373ffffffffffffffffffffffffffffffffffffffff160217905550808273ffffffffffffffffffffffffffffffffffffffff16610e5b836107b1565b73ffffffffffffffffffffffffffffffffffffffff167f8c5be1e5ebec7d5bd14f71427d1e84f3dd0314c0f7b2291e5b200ac8c7c3b92560405160405180910390a45050565b6001816000016000828254019250508190555050565b600081600001549050919050565b600073ffffffffffffffffffffffffffffffffffffffff168273ffffffffffffffffffffffffffffffffffffffff161415610f35576040517f08c379a0000000000000000000000000000000000000000000000000000000008152600401610f2c90612754565b60405180910390fd5b610f3e81610d74565b15610f7e576040517f08c379a0000000000000000000000000000000000000000000000000000000008152600401610f75906127c0565b60405180910390fd5b610f8a60008383611848565b6001600360008473ffffffffffffffffffffffffffffffffffffffff1673ffffffffffffffffffffffffffffffffffffffff1681526020019081526020016000206000828254610fda919061280f565b92505081905550816002600083815260200190815260200160002060006101000a81548173ffffffffffffffffffffffffffffffffffffffff021916908373ffffffffffffffffffffffffffffffffffffffff160217905550808273ffffffffffffffffffffffffffffffffffffffff16600073ffffffffffffffffffffffffffffffffffffffff167fddf252ad1be2c89b69c2b068fc378daa952ba7f163c4a11628f55a4df523b3ef60405160405180910390a45050565b61109c82610d74565b6110db576040517f08c379a00000000000000000000000000000000000000000000000000000000081526004016110d2906128d7565b60405180910390fd5b806008600084815260200190815260200160002090805190602001906111029291906119e8565b505050565b600061111282610d74565b611151576040517f08c379a000000000000000000000000000000000000000000000000000000000815260040161114890612969565b60405180910390fd5b600061115c836107b1565b90508073ffffffffffffffffffffffffffffffffffffffff168473ffffffffffffffffffffffffffffffffffffffff1614806111cb57508373ffffffffffffffffffffffffffffffffffffffff166111b3846104e0565b73ffffffffffffffffffffffffffffffffffffffff16145b806111dc57506111db8185610b7e565b5b91505092915050565b8273ffffffffffffffffffffffffffffffffffffffff16611205826107b1565b73ffffffffffffffffffffffffffffffffffffffff161461125b576040517f08c379a0000000000000000000000000000000000000000000000000000000008152600401611252906129fb565b60405180910390fd5b600073ffffffffffffffffffffffffffffffffffffffff168273ffffffffffffffffffffffffffffffffffffffff1614156112cb576040517f08c379a00000000000000000000000000000000000000000000000000000000081526004016112c290612a8d565b60405180910390fd5b6112d6838383611848565b6112e1600082610de8565b6001600360008573ffffffffffffffffffffffffffffffffffffffff1673ffffffffffffffffffffffffffffffffffffffff16815260200190815260200160002060008282546113319190612aad565b925050819055506001600360008473ffffffffffffffffffffffffffffffffffffffff1673ffffffffffffffffffffffffffffffffffffffff1681526020019081526020016000206000828254611388919061280f565b92505081905550816002600083815260200190815260200160002060006101000a81548173ffffffffffffffffffffffffffffffffffffffff021916908373ffffffffffffffffffffffffffffffffffffffff160217905550808273ffffffffffffffffffffffffffffffffffffffff168473ffffffffffffffffffffffffffffffffffffffff167fddf252ad1be2c89b69c2b068fc378daa952ba7f163c4a11628f55a4df523b3ef60405160405180910390a4505050565b6000600660009054906101000a900473ffffffffffffffffffffffffffffffffffffffff16905081600660006101000a81548173ffffffffffffffffffffffffffffffffffffffff021916908373ffffffffffffffffffffffffffffffffffffffff1602179055508173ffffffffffffffffffffffffffffffffffffffff168173ffffffffffffffffffffffffffffffffffffffff167f8be0079c531659141344cd1fd0a4f28419497f9722a3daafe3b4186f6b6457e060405160405180910390a35050565b8173ffffffffffffffffffffffffffffffffffffffff168373ffffffffffffffffffffffffffffffffffffffff161415611576576040517f08c379a000000000000000000000000000000000000000000000000000000000815260040161156d90612b2d565b60405180910390fd5b80600560008573ffffffffffffffffffffffffffffffffffffffff1673ffffffffffffffffffffffffffffffffffffffff16815260200190815260200160002060008473ffffffffffffffffffffffffffffffffffffffff1673ffffffffffffffffffffffffffffffffffffffff16815260200190815260200160002060006101000a81548160ff0219169083151502179055508173ffffffffffffffffffffffffffffffffffffffff168373ffffffffffffffffffffffffffffffffffffffff167f17307eab39ab6107e8899845ad3d59bd9653f200f220920489ca2b5937696c31836040516116679190611b3f565b60405180910390a3505050565b61167f8484846111e5565b61168b8484848461184d565b6116ca576040517f08c379a00000000000000000000000000000000000000000000000000000000081526004016116c190612bbf565b60405180910390fd5b50505050565b606060405180602001604052806000815250905090565b6060600082141561172f576040518060400160405280600181526020017f30000000000000000000000000000000000000000000000000000000000000008152509050611843565b600082905060005b6000821461176157808061174a90612bdf565b915050600a8261175a9190612c57565b9150611737565b60008167ffffffffffffffff81111561177d5761177c611d4a565b5b6040519080825280601f01601f1916602001820160405280156117af5781602001600182028036833780820191505090505b5090505b6000851461183c576001826117c89190612aad565b9150600a856117d79190612c88565b60306117e3919061280f565b60f81b8183815181106117f9576117f8612cb9565b5b60200101907effffffffffffffffffffffffffffffffffffffffffffffffffffffffffffff1916908160001a905350600a856118359190612c57565b94506117b3565b8093505050505b919050565b505050565b600061186e8473ffffffffffffffffffffffffffffffffffffffff166119d5565b156119c8578373ffffffffffffffffffffffffffffffffffffffff1663150b7a02611897610de0565b8786866040518563ffffffff1660e01b81526004016118b99493929190612d3d565b6020604051808303816000875af19250505080156118f557506040513d601f19601f820116820180604052508101906118f29190612d9e565b60015b611978573d8060008114611925576040519150601f19603f3d011682016040523d82523d6000602084013e61192a565b606091505b50600081511415611970576040517f08c379a000000000000000000000000000000000000000000000000000000000815260040161196790612bbf565b60405180910390fd5b805181602001fd5b63150b7a0260e01b7bffffffffffffffffffffffffffffffffffffffffffffffffffffffff1916817bffffffffffffffffffffffffffffffffffffffffffffffffffffffff1916149150506119cd565b600190505b949350505050565b600080823b905060008111915050919050565b8280546119f49061217a565b90600052602060002090601f016020900481019282611a165760008555611a5d565b82601f10611a2f57805160ff1916838001178555611a5d565b82800160010185558215611a5d579182015b82811115611a5c578251825591602001919060010190611a41565b5b509050611a6a9190611a6e565b5090565b5b80821115611a87576000816000905550600101611a6f565b5090565b6000604051905090565b600080fd5b600080fd5b60007fffffffff0000000000000000000000000000000000000000000000000000000082169050919050565b611ad481611a9f565b8114611adf57600080fd5b50565b600081359050611af181611acb565b92915050565b600060208284031215611b0d57611b0c611a95565b5b6000611b1b84828501611ae2565b91505092915050565b60008115159050919050565b611b3981611b24565b82525050565b6000602082019050611b546000830184611b30565b92915050565b600081519050919050565b600082825260208201905092915050565b60005b83811015611b94578082015181840152602081019050611b79565b83811115611ba3576000848401525b50505050565b6000601f19601f8301169050919050565b6000611bc582611b5a565b611bcf8185611b65565b9350611bdf818560208601611b76565b611be881611ba9565b840191505092915050565b60006020820190508181036000830152611c0d8184611bba565b905092915050565b6000819050919050565b611c2881611c15565b8114611c3357600080fd5b50565b600081359050611c4581611c1f565b92915050565b600060208284031215611c6157611c60611a95565b5b6000611c6f84828501611c36565b91505092915050565b600073ffffffffffffffffffffffffffffffffffffffff82169050919050565b6000611ca382611c78565b9050919050565b611cb381611c98565b82525050565b6000602082019050611cce6000830184611caa565b92915050565b611cdd81611c98565b8114611ce857600080fd5b50565b600081359050611cfa81611cd4565b92915050565b60008060408385031215611d1757611d16611a95565b5b6000611d2585828601611ceb565b9250506020611d3685828601611c36565b9150509250929050565b600080fd5b600080fd5b7f4e487b7100000000000000000000000000000000000000000000000000000000600052604160045260246000fd5b611d8282611ba9565b810181811067ffffffffffffffff82111715611da157611da0611d4a565b5b80604052505050565b6000611db4611a8b565b9050611dc08282611d79565b919050565b600067ffffffffffffffff821115611de057611ddf611d4a565b5b611de982611ba9565b9050602081019050919050565b82818337600083830152505050565b6000611e18611e1384611dc5565b611daa565b905082815260208101848484011115611e3457611e33611d45565b5b611e3f848285611df6565b509392505050565b600082601f830112611e5c57611e5b611d40565b5b8135611e6c848260208601611e05565b91505092915050565b60008060408385031215611e8c57611e8b611a95565b5b6000611e9a85828601611ceb565b925050602083013567ffffffffffffffff811115611ebb57611eba611a9a565b5b611ec785828601611e47565b9150509250929050565b611eda81611c15565b82525050565b6000602082019050611ef56000830184611ed1565b92915050565b600080600060608486031215611f1457611f13611a95565b5b6000611f2286828701611ceb565b9350506020611f3386828701611ceb565b9250506040611f4486828701611c36565b9150509250925092565b600060208284031215611f6457611f63611a95565b5b6000611f7284828501611ceb565b91505092915050565b611f8481611b24565b8114611f8f57600080fd5b50565b600081359050611fa181611f7b565b92915050565b60008060408385031215611fbe57611fbd611a95565b5b6000611fcc85828601611ceb565b9250506020611fdd85828601611f92565b9150509250929050565b600067ffffffffffffffff82111561200257612001611d4a565b5b61200b82611ba9565b9050602081019050919050565b600061202b61202684611fe7565b611daa565b90508281526020810184848401111561204757612046611d45565b5b612052848285611df6565b509392505050565b600082601f83011261206f5761206e611d40565b5b813561207f848260208601612018565b91505092915050565b600080600080608085870312156120a2576120a1611a95565b5b60006120b087828801611ceb565b94505060206120c187828801611ceb565b93505060406120d287828801611c36565b925050606085013567ffffffffffffffff8111156120f3576120f2611a9a565b5b6120ff8782880161205a565b91505092959194509250565b6000806040838503121561212257612121611a95565b5b600061213085828601611ceb565b925050602061214185828601611ceb565b9150509250929050565b7f4e487b7100000000000000000000000000000000000000000000000000000000600052602260045260246000fd5b6000600282049050600182168061219257607f821691505b602082108114156121a6576121a561214b565b5b50919050565b7f4552433732313a20617070726f76656420717565727920666f72206e6f6e657860008201527f697374656e7420746f6b656e0000000000000000000000000000000000000000602082015250565b6000612208602c83611b65565b9150612213826121ac565b604082019050919050565b60006020820190508181036000830152612237816121fb565b9050919050565b7f4552433732313a20617070726f76616c20746f2063757272656e74206f776e6560008201527f7200000000000000000000000000000000000000000000000000000000000000602082015250565b600061229a602183611b65565b91506122a58261223e565b604082019050919050565b600060208201905081810360008301526122c98161228d565b9050919050565b7f4552433732313a20617070726f76652063616c6c6572206973206e6f74206f7760008201527f6e6572206e6f7220617070726f76656420666f7220616c6c0000000000000000602082015250565b600061232c603883611b65565b9150612337826122d0565b604082019050919050565b6000602082019050818103600083015261235b8161231f565b9050919050565b7f4f776e61626c653a2063616c6c6572206973206e6f7420746865206f776e6572600082015250565b6000612398602083611b65565b91506123a382612362565b602082019050919050565b600060208201905081810360008301526123c78161238b565b9050919050565b7f4552433732313a207472616e736665722063616c6c6572206973206e6f74206f60008201527f776e6572206e6f7220617070726f766564000000000000000000000000000000602082015250565b600061242a603183611b65565b9150612435826123ce565b604082019050919050565b600060208201905081810360008301526124598161241d565b9050919050565b7f4552433732313a206f776e657220717565727920666f72206e6f6e657869737460008201527f656e7420746f6b656e0000000000000000000000000000000000000000000000602082015250565b60006124bc602983611b65565b91506124c782612460565b604082019050919050565b600060208201905081810360008301526124eb816124af565b9050919050565b7f4552433732313a2062616c616e636520717565727920666f7220746865207a6560008201527f726f206164647265737300000000000000000000000000000000000000000000602082015250565b600061254e602a83611b65565b9150612559826124f2565b604082019050919050565b6000602082019050818103600083015261257d81612541565b9050919050565b7f4552433732314d657461646174613a2055524920717565727920666f72206e6f60008201527f6e6578697374656e7420746f6b656e0000000000000000000000000000000000602082015250565b60006125e0602f83611b65565b91506125eb82612584565b604082019050919050565b6000602082019050818103600083015261260f816125d3565b9050919050565b600081905092915050565b600061262c82611b5a565b6126368185612616565b9350612646818560208601611b76565b80840191505092915050565b600061265e8285612621565b915061266a8284612621565b91508190509392505050565b7f4f776e61626c653a206e6577206f776e657220697320746865207a65726f206160008201527f6464726573730000000000000000000000000000000000000000000000000000602082015250565b60006126d2602683611b65565b91506126dd82612676565b604082019050919050565b60006020820190508181036000830152612701816126c5565b9050919050565b7f4552433732313a206d696e7420746f20746865207a65726f2061646472657373600082015250565b600061273e602083611b65565b915061274982612708565b602082019050919050565b6000602082019050818103600083015261276d81612731565b9050919050565b7f4552433732313a20746f6b656e20616c7265616479206d696e74656400000000600082015250565b60006127aa601c83611b65565b91506127b582612774565b602082019050919050565b600060208201905081810360008301526127d98161279d565b9050919050565b7f4e487b7100000000000000000000000000000000000000000000000000000000600052601160045260246000fd5b600061281a82611c15565b915061282583611c15565b9250827fffffffffffffffffffffffffffffffffffffffffffffffffffffffffffffffff0382111561285a576128596127e0565b5b828201905092915050565b7f4552433732314d657461646174613a2055524920736574206f66206e6f6e657860008201527f697374656e7420746f6b656e0000000000000000000000000000000000000000602082015250565b60006128c1602c83611b65565b91506128cc82612865565b604082019050919050565b600060208201905081810360008301526128f0816128b4565b9050919050565b7f4552433732313a206f70657261746f7220717565727920666f72206e6f6e657860008201527f697374656e7420746f6b656e0000000000000000000000000000000000000000602082015250565b6000612953602c83611b65565b915061295e826128f7565b604082019050919050565b6000602082019050818103600083015261298281612946565b9050919050565b7f4552433732313a207472616e73666572206f6620746f6b656e2074686174206960008201527f73206e6f74206f776e0000000000000000000000000000000000000000000000602082015250565b60006129e5602983611b65565b91506129f082612989565b604082019050919050565b60006020820190508181036000830152612a14816129d8565b9050919050565b7f4552433732313a207472616e7366657220746f20746865207a65726f2061646460008201527f7265737300000000000000000000000000000000000000000000000000000000602082015250565b6000612a77602483611b65565b9150612a8282612a1b565b604082019050919050565b60006020820190508181036000830152612aa681612a6a565b9050919050565b6000612ab882611c15565b9150612ac383611c15565b925082821015612ad657612ad56127e0565b5b828203905092915050565b7f4552433732313a20617070726f766520746f2063616c6c657200000000000000600082015250565b6000612b17601983611b65565b9150612b2282612ae1565b602082019050919050565b60006020820190508181036000830152612b4681612b0a565b9050919050565b7f4552433732313a207472616e7366657220746f206e6f6e20455243373231526560008201527f63656976657220696d706c656d656e7465720000000000000000000000000000602082015250565b6000612ba9603283611b65565b9150612bb482612b4d565b604082019050919050565b60006020820190508181036000830152612bd881612b9c565b9050919050565b6000612bea82611c15565b91507fffffffffffffffffffffffffffffffffffffffffffffffffffffffffffffffff821415612c1d57612c1c6127e0565b5b600182019050919050565b7f4e487b7100000000000000000000000000000000000000000000000000000000600052601260045260246000fd5b6000612c6282611c15565b9150612c6d83611c15565b925082612c7d57612c7c612c28565b5b828204905092915050565b6000612c9382611c15565b9150612c9e83611c15565b925082612cae57612cad612c28565b5b828206905092915050565b7f4e487b7100000000000000000000000000000000000000000000000000000000600052603260045260246000fd5b600081519050919050565b600082825260208201905092915050565b6000612d0f82612ce8565b612d198185612cf3565b9350612d29818560208601611b76565b612d3281611ba9565b840191505092915050565b6000608082019050612d526000830187611caa565b612d5f6020830186611caa565b612d6c6040830185611ed1565b8181036060830152612d7e8184612d04565b905095945050505050565b600081519050612d9881611acb565b92915050565b600060208284031215612db457612db3611a95565b5b6000612dc284828501612d89565b9150509291505056fea2646970667358221220f462f6231ef0bb339a74a4acd6de8e94e561948bb3d8a61f21388c6765ae3df464736f6c634300080a0033",
  "immutableReferences": {},
  "source": "// SPDX-License-Identifier: MIT\npragma solidity ^0.8.10;\n\nimport \"@openzeppelin/contracts/token/ERC721/ERC721.sol\";\nimport \"@openzeppelin/contracts/utils/Counters.sol\";\nimport \"@openzeppelin/contracts/access/Ownable.sol\";\n\ncontract MeCoNFT is ERC721, Ownable {\n    using Counters for Counters.Counter;\n    Counters.Counter private _tokenIds;\n\n    mapping(uint256 => string) private _tokenURIs;\n\n    constructor() ERC721(\"MeCoNFT\", \"MECONFT\") {}\n\n    function _setTokenURI(uint256 tokenId, string memory _tokenURI)\n        internal\n        virtual\n    {\n        require(\n            _exists(tokenId),\n            \"ERC721Metadata: URI set of nonexistent token\"\n        );\n        _tokenURIs[tokenId] = _tokenURI;\n    }\n\n    function mintNft(address receiver, string memory tokenURI)\n        external\n        onlyOwner\n        returns (uint256)\n    {\n        _tokenIds.increment();\n\n        uint256 newNftTokenId = _tokenIds.current();\n        _mint(receiver, newNftTokenId);\n        _setTokenURI(newNftTokenId, tokenURI);\n\n        return newNftTokenId;\n    }\n}\n",
  "sourcePath": "/Users/edesimon/Repos/blockchain/nft-app/contracts/MeCoNFT.sol",
  "compiler": {
    "name": "solc",
    "version": "0.8.10+commit.fc410830.Emscripten.clang"
  },
  "schemaVersion": "3.4.3",
  "updatedAt": "2022-01-25T14:38:59.675Z",
  "networkType": "ethereum",
  "devdoc": {
    "kind": "dev",
    "methods": {
      "approve(address,uint256)": {
        "details": "See {IERC721-approve}."
      },
      "balanceOf(address)": {
        "details": "See {IERC721-balanceOf}."
      },
      "getApproved(uint256)": {
        "details": "See {IERC721-getApproved}."
      },
      "isApprovedForAll(address,address)": {
        "details": "See {IERC721-isApprovedForAll}."
      },
      "name()": {
        "details": "See {IERC721Metadata-name}."
      },
      "owner()": {
        "details": "Returns the address of the current owner."
      },
      "ownerOf(uint256)": {
        "details": "See {IERC721-ownerOf}."
      },
      "renounceOwnership()": {
        "details": "Leaves the contract without owner. It will not be possible to call `onlyOwner` functions anymore. Can only be called by the current owner. NOTE: Renouncing ownership will leave the contract without an owner, thereby removing any functionality that is only available to the owner."
      },
      "safeTransferFrom(address,address,uint256)": {
        "details": "See {IERC721-safeTransferFrom}."
      },
      "safeTransferFrom(address,address,uint256,bytes)": {
        "details": "See {IERC721-safeTransferFrom}."
      },
      "setApprovalForAll(address,bool)": {
        "details": "See {IERC721-setApprovalForAll}."
      },
      "supportsInterface(bytes4)": {
        "details": "See {IERC165-supportsInterface}."
      },
      "symbol()": {
        "details": "See {IERC721Metadata-symbol}."
      },
      "tokenURI(uint256)": {
        "details": "See {IERC721Metadata-tokenURI}."
      },
      "transferFrom(address,address,uint256)": {
        "details": "See {IERC721-transferFrom}."
      },
      "transferOwnership(address)": {
        "details": "Transfers ownership of the contract to a new account (`newOwner`). Can only be called by the current owner."
      }
    },
    "version": 1
  },
  "userdoc": {
    "kind": "user",
    "methods": {},
    "version": 1
  }
}