{
  "contractName": "MeCoNft",
  "abi": [
    {
      "inputs": [],
      "stateMutability": "nonpayable",
      "type": "constructor"
    },
    {
      "anonymous": false,
      "inputs": [
        {
          "indexed": true,
          "internalType": "address",
          "name": "owner",
          "type": "address"
        },
        {
          "indexed": true,
          "internalType": "address",
          "name": "approved",
          "type": "address"
        },
        {
          "indexed": true,
          "internalType": "uint256",
          "name": "tokenId",
          "type": "uint256"
        }
      ],
      "name": "Approval",
      "type": "event"
    },
    {
      "anonymous": false,
      "inputs": [
        {
          "indexed": true,
          "internalType": "address",
          "name": "owner",
          "type": "address"
        },
        {
          "indexed": true,
          "internalType": "address",
          "name": "operator",
          "type": "address"
        },
        {
          "indexed": false,
          "internalType": "bool",
          "name": "approved",
          "type": "bool"
        }
      ],
      "name": "ApprovalForAll",
      "type": "event"
    },
    {
      "anonymous": false,
      "inputs": [
        {
          "indexed": true,
          "internalType": "address",
          "name": "previousOwner",
          "type": "address"
        },
        {
          "indexed": true,
          "internalType": "address",
          "name": "newOwner",
          "type": "address"
        }
      ],
      "name": "OwnershipTransferred",
      "type": "event"
    },
    {
      "anonymous": false,
      "inputs": [
        {
          "indexed": true,
          "internalType": "address",
          "name": "from",
          "type": "address"
        },
        {
          "indexed": true,
          "internalType": "address",
          "name": "to",
          "type": "address"
        },
        {
          "indexed": true,
          "internalType": "uint256",
          "name": "tokenId",
          "type": "uint256"
        }
      ],
      "name": "Transfer",
      "type": "event"
    },
    {
      "inputs": [
        {
          "internalType": "address",
          "name": "to",
          "type": "address"
        },
        {
          "internalType": "uint256",
          "name": "tokenId",
          "type": "uint256"
        }
      ],
      "name": "approve",
      "outputs": [],
      "stateMutability": "nonpayable",
      "type": "function"
    },
    {
      "inputs": [
        {
          "internalType": "address",
          "name": "owner",
          "type": "address"
        }
      ],
      "name": "balanceOf",
      "outputs": [
        {
          "internalType": "uint256",
          "name": "",
          "type": "uint256"
        }
      ],
      "stateMutability": "view",
      "type": "function"
    },
    {
      "inputs": [
        {
          "internalType": "uint256",
          "name": "tokenId",
          "type": "uint256"
        }
      ],
      "name": "getApproved",
      "outputs": [
        {
          "internalType": "address",
          "name": "",
          "type": "address"
        }
      ],
      "stateMutability": "view",
      "type": "function"
    },
    {
      "inputs": [
        {
          "internalType": "address",
          "name": "owner",
          "type": "address"
        },
        {
          "internalType": "address",
          "name": "operator",
          "type": "address"
        }
      ],
      "name": "isApprovedForAll",
      "outputs": [
        {
          "internalType": "bool",
          "name": "",
          "type": "bool"
        }
      ],
      "stateMutability": "view",
      "type": "function"
    },
    {
      "inputs": [],
      "name": "name",
      "outputs": [
        {
          "internalType": "string",
          "name": "",
          "type": "string"
        }
      ],
      "stateMutability": "view",
      "type": "function"
    },
    {
      "inputs": [],
      "name": "owner",
      "outputs": [
        {
          "internalType": "address",
          "name": "",
          "type": "address"
        }
      ],
      "stateMutability": "view",
      "type": "function"
    },
    {
      "inputs": [
        {
          "internalType": "uint256",
          "name": "tokenId",
          "type": "uint256"
        }
      ],
      "name": "ownerOf",
      "outputs": [
        {
          "internalType": "address",
          "name": "",
          "type": "address"
        }
      ],
      "stateMutability": "view",
      "type": "function"
    },
    {
      "inputs": [],
      "name": "renounceOwnership",
      "outputs": [],
      "stateMutability": "nonpayable",
      "type": "function"
    },
    {
      "inputs": [
        {
          "internalType": "address",
          "name": "operator",
          "type": "address"
        },
        {
          "internalType": "bool",
          "name": "approved",
          "type": "bool"
        }
      ],
      "name": "setApprovalForAll",
      "outputs": [],
      "stateMutability": "nonpayable",
      "type": "function"
    },
    {
      "inputs": [
        {
          "internalType": "bytes4",
          "name": "interfaceId",
          "type": "bytes4"
        }
      ],
      "name": "supportsInterface",
      "outputs": [
        {
          "internalType": "bool",
          "name": "",
          "type": "bool"
        }
      ],
      "stateMutability": "view",
      "type": "function"
    },
    {
      "inputs": [],
      "name": "symbol",
      "outputs": [
        {
          "internalType": "string",
          "name": "",
          "type": "string"
        }
      ],
      "stateMutability": "view",
      "type": "function"
    },
    {
      "inputs": [],
      "name": "tokenIds",
      "outputs": [
        {
          "internalType": "uint256",
          "name": "_value",
          "type": "uint256"
        }
      ],
      "stateMutability": "view",
      "type": "function"
    },
    {
      "inputs": [
        {
          "internalType": "uint256",
          "name": "tokenId",
          "type": "uint256"
        }
      ],
      "name": "tokenURI",
      "outputs": [
        {
          "internalType": "string",
          "name": "",
          "type": "string"
        }
      ],
      "stateMutability": "view",
      "type": "function"
    },
    {
      "inputs": [
        {
          "internalType": "address",
          "name": "newOwner",
          "type": "address"
        }
      ],
      "name": "transferOwnership",
      "outputs": [],
      "stateMutability": "nonpayable",
      "type": "function"
    },
    {
      "inputs": [
        {
          "internalType": "address",
          "name": "",
          "type": "address"
        },
        {
          "internalType": "uint256",
          "name": "",
          "type": "uint256"
        }
      ],
      "name": "userOwnedTokens",
      "outputs": [
        {
          "internalType": "uint256",
          "name": "",
          "type": "uint256"
        }
      ],
      "stateMutability": "view",
      "type": "function"
    },
    {
      "inputs": [],
      "name": "lastTokenId",
      "outputs": [
        {
          "internalType": "uint256",
          "name": "",
          "type": "uint256"
        }
      ],
      "stateMutability": "view",
      "type": "function"
    },
    {
      "inputs": [
        {
          "internalType": "string",
          "name": "tokenURI",
          "type": "string"
        }
      ],
      "name": "mintNft",
      "outputs": [
        {
          "internalType": "uint256",
          "name": "",
          "type": "uint256"
        }
      ],
      "stateMutability": "nonpayable",
      "type": "function"
    },
    {
      "inputs": [
        {
          "internalType": "address",
          "name": "_owner",
          "type": "address"
        }
      ],
      "name": "tokensOfUser",
      "outputs": [
        {
          "internalType": "uint256[]",
          "name": "",
          "type": "uint256[]"
        }
      ],
      "stateMutability": "view",
      "type": "function"
    },
    {
      "inputs": [
        {
          "internalType": "address",
          "name": "from",
          "type": "address"
        },
        {
          "internalType": "address",
          "name": "to",
          "type": "address"
        },
        {
          "internalType": "uint256",
          "name": "tokenId",
          "type": "uint256"
        }
      ],
      "name": "transferFrom",
      "outputs": [],
      "stateMutability": "nonpayable",
      "type": "function"
    },
    {
      "inputs": [
        {
          "internalType": "address",
          "name": "from",
          "type": "address"
        },
        {
          "internalType": "address",
          "name": "to",
          "type": "address"
        },
        {
          "internalType": "uint256",
          "name": "tokenId",
          "type": "uint256"
        }
      ],
      "name": "safeTransferFrom",
      "outputs": [],
      "stateMutability": "nonpayable",
      "type": "function"
    },
    {
      "inputs": [
        {
          "internalType": "address",
          "name": "from",
          "type": "address"
        },
        {
          "internalType": "address",
          "name": "to",
          "type": "address"
        },
        {
          "internalType": "uint256",
          "name": "tokenId",
          "type": "uint256"
        },
        {
          "internalType": "bytes",
          "name": "_data",
          "type": "bytes"
        }
      ],
      "name": "safeTransferFrom",
      "outputs": [],
      "stateMutability": "nonpayable",
      "type": "function"
    }
  ],
  "bytecode": "0x60806040523480156200001157600080fd5b506040518060400160405280600781526020017f4d65436f4e6674000000000000000000000000000000000000000000000000008152506040518060400160405280600781526020017f4d45434f4e465400000000000000000000000000000000000000000000000000815250816000908051906020019062000096929190620001a6565b508060019080519060200190620000af929190620001a6565b505050620000d2620000c6620000d860201b60201c565b620000e060201b60201c565b620002bb565b600033905090565b6000600760009054906101000a900473ffffffffffffffffffffffffffffffffffffffff16905081600760006101000a81548173ffffffffffffffffffffffffffffffffffffffff021916908373ffffffffffffffffffffffffffffffffffffffff1602179055508173ffffffffffffffffffffffffffffffffffffffff168173ffffffffffffffffffffffffffffffffffffffff167f8be0079c531659141344cd1fd0a4f28419497f9722a3daafe3b4186f6b6457e060405160405180910390a35050565b828054620001b49062000285565b90600052602060002090601f016020900481019282620001d8576000855562000224565b82601f10620001f357805160ff191683800117855562000224565b8280016001018555821562000224579182015b828111156200022357825182559160200191906001019062000206565b5b50905062000233919062000237565b5090565b5b808211156200025257600081600090555060010162000238565b5090565b7f4e487b7100000000000000000000000000000000000000000000000000000000600052602260045260246000fd5b600060028204905060018216806200029e57607f821691505b60208210811415620002b557620002b462000256565b5b50919050565b61388180620002cb6000396000f3fe608060405234801561001057600080fd5b50600436106101375760003560e01c8063714cff56116100b8578063b88d4fde1161007c578063b88d4fde1461034e578063c87b56dd1461036a578063da86f4a91461039a578063e985e9c5146103ca578063f2fde38b146103fa578063f84ddf0b1461041657610137565b8063714cff56146102ce578063715018a6146102ec5780638da5cb5b146102f657806395d89b4114610314578063a22cb4651461033257610137565b806323b872dd116100ff57806323b872dd1461020657806342842e0e1461022257806361b551181461023e5780636352211e1461026e57806370a082311461029e57610137565b806301ffc9a71461013c57806306fdde031461016c578063081812fc1461018a578063095ea7b3146101ba57806314b924e2146101d6575b600080fd5b61015660048036038101906101519190612268565b610434565b60405161016391906122b0565b60405180910390f35b610174610516565b6040516101819190612364565b60405180910390f35b6101a4600480360381019061019f91906123bc565b6105a8565b6040516101b1919061242a565b60405180910390f35b6101d460048036038101906101cf9190612471565b61062d565b005b6101f060048036038101906101eb9190612471565b610745565b6040516101fd91906124c0565b60405180910390f35b610220600480360381019061021b91906124db565b610776565b005b61023c600480360381019061023791906124db565b6107ea565b005b6102586004803603810190610253919061252e565b61080a565b6040516102659190612619565b60405180910390f35b610288600480360381019061028391906123bc565b6108a1565b604051610295919061242a565b60405180910390f35b6102b860048036038101906102b3919061252e565b610953565b6040516102c591906124c0565b60405180910390f35b6102d6610a0b565b6040516102e391906124c0565b60405180910390f35b6102f4610a17565b005b6102fe610a9f565b60405161030b919061242a565b60405180910390f35b61031c610ac9565b6040516103299190612364565b60405180910390f35b61034c60048036038101906103479190612667565b610b5b565b005b610368600480360381019061036391906127dc565b610b71565b005b610384600480360381019061037f91906123bc565b610be7565b6040516103919190612364565b60405180910390f35b6103b460048036038101906103af9190612900565b610d39565b6040516103c191906124c0565b60405180910390f35b6103e460048036038101906103df9190612949565b610e9c565b6040516103f191906122b0565b60405180910390f35b610414600480360381019061040f919061252e565b610f30565b005b61041e611028565b60405161042b91906124c0565b60405180910390f35b60007f80ac58cd000000000000000000000000000000000000000000000000000000007bffffffffffffffffffffffffffffffffffffffffffffffffffffffff1916827bffffffffffffffffffffffffffffffffffffffffffffffffffffffff191614806104ff57507f5b5e139f000000000000000000000000000000000000000000000000000000007bffffffffffffffffffffffffffffffffffffffffffffffffffffffff1916827bffffffffffffffffffffffffffffffffffffffffffffffffffffffff1916145b8061050f575061050e82611039565b5b9050919050565b606060008054610525906129b8565b80601f0160208091040260200160405190810160405280929190818152602001828054610551906129b8565b801561059e5780601f106105735761010080835404028352916020019161059e565b820191906000526020600020905b81548152906001019060200180831161058157829003601f168201915b5050505050905090565b60006105b3826110a3565b6105f2576040517f08c379a00000000000000000000000000000000000000000000000000000000081526004016105e990612a5c565b60405180910390fd5b6004600083815260200190815260200160002060009054906101000a900473ffffffffffffffffffffffffffffffffffffffff169050919050565b6000610638826108a1565b90508073ffffffffffffffffffffffffffffffffffffffff168373ffffffffffffffffffffffffffffffffffffffff1614156106a9576040517f08c379a00000000000000000000000000000000000000000000000000000000081526004016106a090612aee565b60405180910390fd5b8073ffffffffffffffffffffffffffffffffffffffff166106c861110f565b73ffffffffffffffffffffffffffffffffffffffff1614806106f757506106f6816106f161110f565b610e9c565b5b610736576040517f08c379a000000000000000000000000000000000000000000000000000000000815260040161072d90612b80565b60405180910390fd5b6107408383611117565b505050565b600a602052816000526040600020818154811061076157600080fd5b90600052602060002001600091509150505481565b61078761078161110f565b826111d0565b6107c6576040517f08c379a00000000000000000000000000000000000000000000000000000000081526004016107bd90612c12565b60405180910390fd5b6107d083826112ae565b6107da82826114cf565b6107e583838361159f565b505050565b61080583838360405180602001604052806000815250610b71565b505050565b6060600a60008373ffffffffffffffffffffffffffffffffffffffff1673ffffffffffffffffffffffffffffffffffffffff16815260200190815260200160002080548060200260200160405190810160405280929190818152602001828054801561089557602002820191906000526020600020905b815481526020019060010190808311610881575b50505050509050919050565b6000806002600084815260200190815260200160002060009054906101000a900473ffffffffffffffffffffffffffffffffffffffff169050600073ffffffffffffffffffffffffffffffffffffffff168173ffffffffffffffffffffffffffffffffffffffff16141561094a576040517f08c379a000000000000000000000000000000000000000000000000000000000815260040161094190612ca4565b60405180910390fd5b80915050919050565b60008073ffffffffffffffffffffffffffffffffffffffff168273ffffffffffffffffffffffffffffffffffffffff1614156109c4576040517f08c379a00000000000000000000000000000000000000000000000000000000081526004016109bb90612d36565b60405180910390fd5b600360008373ffffffffffffffffffffffffffffffffffffffff1673ffffffffffffffffffffffffffffffffffffffff168152602001908152602001600020549050919050565b60088060000154905081565b610a1f61110f565b73ffffffffffffffffffffffffffffffffffffffff16610a3d610a9f565b73ffffffffffffffffffffffffffffffffffffffff1614610a93576040517f08c379a0000000000000000000000000000000000000000000000000000000008152600401610a8a90612da2565b60405180910390fd5b610a9d60006117fb565b565b6000600760009054906101000a900473ffffffffffffffffffffffffffffffffffffffff16905090565b606060018054610ad8906129b8565b80601f0160208091040260200160405190810160405280929190818152602001828054610b04906129b8565b8015610b515780601f10610b2657610100808354040283529160200191610b51565b820191906000526020600020905b815481529060010190602001808311610b3457829003601f168201915b5050505050905090565b610b6d610b6661110f565b83836118c1565b5050565b610b82610b7c61110f565b836111d0565b610bc1576040517f08c379a0000000000000000000000000000000000000000000000000000000008152600401610bb890612e34565b60405180910390fd5b610bcb84836112ae565b610bd583836114cf565b610be184848484611a2e565b50505050565b6060610bf2826110a3565b610c31576040517f08c379a0000000000000000000000000000000000000000000000000000000008152600401610c2890612ec6565b60405180910390fd5b6000600660008481526020019081526020016000208054610c51906129b8565b80601f0160208091040260200160405190810160405280929190818152602001828054610c7d906129b8565b8015610cca5780601f10610c9f57610100808354040283529160200191610cca565b820191906000526020600020905b815481529060010190602001808311610cad57829003601f168201915b505050505090506000610cdb611a8a565b9050600081511415610cf1578192505050610d34565b600082511115610d26578082604051602001610d0e929190612f22565b60405160208183030381529060405292505050610d34565b610d2f84611aa1565b925050505b919050565b600080600983604051610d4c9190612f46565b90815260200160405180910390205414610d9b576040517f08c379a0000000000000000000000000000000000000000000000000000000008152600401610d9290612fa9565b60405180910390fd5b610da56008611b48565b6000610db16008611b5e565b9050600a60003373ffffffffffffffffffffffffffffffffffffffff1673ffffffffffffffffffffffffffffffffffffffff1681526020019081526020016000208190806001815401808255809150506001900390600052602060002001600090919091909150556001600a60003373ffffffffffffffffffffffffffffffffffffffff1673ffffffffffffffffffffffffffffffffffffffff16815260200190815260200160002080549050610e689190612ff8565b600b600083815260200190815260200160002081905550610e893382611b6c565b610e938184611b8a565b80915050919050565b6000600560008473ffffffffffffffffffffffffffffffffffffffff1673ffffffffffffffffffffffffffffffffffffffff16815260200190815260200160002060008373ffffffffffffffffffffffffffffffffffffffff1673ffffffffffffffffffffffffffffffffffffffff16815260200190815260200160002060009054906101000a900460ff16905092915050565b610f3861110f565b73ffffffffffffffffffffffffffffffffffffffff16610f56610a9f565b73ffffffffffffffffffffffffffffffffffffffff1614610fac576040517f08c379a0000000000000000000000000000000000000000000000000000000008152600401610fa390612da2565b60405180910390fd5b600073ffffffffffffffffffffffffffffffffffffffff168173ffffffffffffffffffffffffffffffffffffffff16141561101c576040517f08c379a00000000000000000000000000000000000000000000000000000000081526004016110139061309e565b60405180910390fd5b611025816117fb565b50565b60006110346008611b5e565b905090565b60007f01ffc9a7000000000000000000000000000000000000000000000000000000007bffffffffffffffffffffffffffffffffffffffffffffffffffffffff1916827bffffffffffffffffffffffffffffffffffffffffffffffffffffffff1916149050919050565b60008073ffffffffffffffffffffffffffffffffffffffff166002600084815260200190815260200160002060009054906101000a900473ffffffffffffffffffffffffffffffffffffffff1673ffffffffffffffffffffffffffffffffffffffff1614159050919050565b600033905090565b816004600083815260200190815260200160002060006101000a81548173ffffffffffffffffffffffffffffffffffffffff021916908373ffffffffffffffffffffffffffffffffffffffff160217905550808273ffffffffffffffffffffffffffffffffffffffff1661118a836108a1565b73ffffffffffffffffffffffffffffffffffffffff167f8c5be1e5ebec7d5bd14f71427d1e84f3dd0314c0f7b2291e5b200ac8c7c3b92560405160405180910390a45050565b60006111db826110a3565b61121a576040517f08c379a000000000000000000000000000000000000000000000000000000000815260040161121190613130565b60405180910390fd5b6000611225836108a1565b90508073ffffffffffffffffffffffffffffffffffffffff168473ffffffffffffffffffffffffffffffffffffffff16148061129457508373ffffffffffffffffffffffffffffffffffffffff1661127c846105a8565b73ffffffffffffffffffffffffffffffffffffffff16145b806112a557506112a48185610e9c565b5b91505092915050565b6000600a60008473ffffffffffffffffffffffffffffffffffffffff1673ffffffffffffffffffffffffffffffffffffffff1681526020019081526020016000208054905011611333576040517f08c379a000000000000000000000000000000000000000000000000000000000815260040161132a9061319c565b60405180910390fd5b600a60008373ffffffffffffffffffffffffffffffffffffffff1673ffffffffffffffffffffffffffffffffffffffff1681526020019081526020016000206001600a60008573ffffffffffffffffffffffffffffffffffffffff1673ffffffffffffffffffffffffffffffffffffffff168152602001908152602001600020805490506113c19190612ff8565b815481106113d2576113d16131bc565b5b9060005260206000200154600a60008473ffffffffffffffffffffffffffffffffffffffff1673ffffffffffffffffffffffffffffffffffffffff168152602001908152602001600020600b60008481526020019081526020016000205481548110611441576114406131bc565b5b9060005260206000200181905550600a60008373ffffffffffffffffffffffffffffffffffffffff1673ffffffffffffffffffffffffffffffffffffffff16815260200190815260200160002080548061149e5761149d6131eb565b5b60019003818190600052602060002001600090559055600b6000828152602001908152602001600020600090555050565b600a60008373ffffffffffffffffffffffffffffffffffffffff1673ffffffffffffffffffffffffffffffffffffffff1681526020019081526020016000208190806001815401808255809150506001900390600052602060002001600090919091909150556001600a60008473ffffffffffffffffffffffffffffffffffffffff1673ffffffffffffffffffffffffffffffffffffffff168152602001908152602001600020805490506115849190612ff8565b600b6000838152602001908152602001600020819055505050565b8273ffffffffffffffffffffffffffffffffffffffff166115bf826108a1565b73ffffffffffffffffffffffffffffffffffffffff1614611615576040517f08c379a000000000000000000000000000000000000000000000000000000000815260040161160c9061328c565b60405180910390fd5b600073ffffffffffffffffffffffffffffffffffffffff168273ffffffffffffffffffffffffffffffffffffffff161415611685576040517f08c379a000000000000000000000000000000000000000000000000000000000815260040161167c9061331e565b60405180910390fd5b611690838383611bbb565b61169b600082611117565b6001600360008573ffffffffffffffffffffffffffffffffffffffff1673ffffffffffffffffffffffffffffffffffffffff16815260200190815260200160002060008282546116eb9190612ff8565b925050819055506001600360008473ffffffffffffffffffffffffffffffffffffffff1673ffffffffffffffffffffffffffffffffffffffff1681526020019081526020016000206000828254611742919061333e565b92505081905550816002600083815260200190815260200160002060006101000a81548173ffffffffffffffffffffffffffffffffffffffff021916908373ffffffffffffffffffffffffffffffffffffffff160217905550808273ffffffffffffffffffffffffffffffffffffffff168473ffffffffffffffffffffffffffffffffffffffff167fddf252ad1be2c89b69c2b068fc378daa952ba7f163c4a11628f55a4df523b3ef60405160405180910390a4505050565b6000600760009054906101000a900473ffffffffffffffffffffffffffffffffffffffff16905081600760006101000a81548173ffffffffffffffffffffffffffffffffffffffff021916908373ffffffffffffffffffffffffffffffffffffffff1602179055508173ffffffffffffffffffffffffffffffffffffffff168173ffffffffffffffffffffffffffffffffffffffff167f8be0079c531659141344cd1fd0a4f28419497f9722a3daafe3b4186f6b6457e060405160405180910390a35050565b8173ffffffffffffffffffffffffffffffffffffffff168373ffffffffffffffffffffffffffffffffffffffff161415611930576040517f08c379a0000000000000000000000000000000000000000000000000000000008152600401611927906133e0565b60405180910390fd5b80600560008573ffffffffffffffffffffffffffffffffffffffff1673ffffffffffffffffffffffffffffffffffffffff16815260200190815260200160002060008473ffffffffffffffffffffffffffffffffffffffff1673ffffffffffffffffffffffffffffffffffffffff16815260200190815260200160002060006101000a81548160ff0219169083151502179055508173ffffffffffffffffffffffffffffffffffffffff168373ffffffffffffffffffffffffffffffffffffffff167f17307eab39ab6107e8899845ad3d59bd9653f200f220920489ca2b5937696c3183604051611a2191906122b0565b60405180910390a3505050565b611a3984848461159f565b611a4584848484611bc0565b611a84576040517f08c379a0000000000000000000000000000000000000000000000000000000008152600401611a7b90613472565b60405180910390fd5b50505050565b606060405180602001604052806000815250905090565b6060611aac826110a3565b611aeb576040517f08c379a0000000000000000000000000000000000000000000000000000000008152600401611ae290613504565b60405180910390fd5b6000611af5611a8a565b90506000815111611b155760405180602001604052806000815250611b40565b80611b1f84611d48565b604051602001611b30929190612f22565b6040516020818303038152906040525b915050919050565b6001816000016000828254019250508190555050565b600081600001549050919050565b611b86828260405180602001604052806000815250611ea9565b5050565b611b948282611f04565b81600982604051611ba59190612f46565b9081526020016040518091039020819055505050565b505050565b6000611be18473ffffffffffffffffffffffffffffffffffffffff16611f78565b15611d3b578373ffffffffffffffffffffffffffffffffffffffff1663150b7a02611c0a61110f565b8786866040518563ffffffff1660e01b8152600401611c2c9493929190613579565b6020604051808303816000875af1925050508015611c6857506040513d601f19601f82011682018060405250810190611c6591906135da565b60015b611ceb573d8060008114611c98576040519150601f19603f3d011682016040523d82523d6000602084013e611c9d565b606091505b50600081511415611ce3576040517f08c379a0000000000000000000000000000000000000000000000000000000008152600401611cda90613472565b60405180910390fd5b805181602001fd5b63150b7a0260e01b7bffffffffffffffffffffffffffffffffffffffffffffffffffffffff1916817bffffffffffffffffffffffffffffffffffffffffffffffffffffffff191614915050611d40565b600190505b949350505050565b60606000821415611d90576040518060400160405280600181526020017f30000000000000000000000000000000000000000000000000000000000000008152509050611ea4565b600082905060005b60008214611dc2578080611dab90613607565b915050600a82611dbb919061367f565b9150611d98565b60008167ffffffffffffffff811115611dde57611ddd6126b1565b5b6040519080825280601f01601f191660200182016040528015611e105781602001600182028036833780820191505090505b5090505b60008514611e9d57600182611e299190612ff8565b9150600a85611e3891906136b0565b6030611e44919061333e565b60f81b818381518110611e5a57611e596131bc565b5b60200101907effffffffffffffffffffffffffffffffffffffffffffffffffffffffffffff1916908160001a905350600a85611e96919061367f565b9450611e14565b8093505050505b919050565b611eb38383611f8b565b611ec06000848484611bc0565b611eff576040517f08c379a0000000000000000000000000000000000000000000000000000000008152600401611ef690613472565b60405180910390fd5b505050565b611f0d826110a3565b611f4c576040517f08c379a0000000000000000000000000000000000000000000000000000000008152600401611f4390613753565b60405180910390fd5b80600660008481526020019081526020016000209080519060200190611f73929190612159565b505050565b600080823b905060008111915050919050565b600073ffffffffffffffffffffffffffffffffffffffff168273ffffffffffffffffffffffffffffffffffffffff161415611ffb576040517f08c379a0000000000000000000000000000000000000000000000000000000008152600401611ff2906137bf565b60405180910390fd5b612004816110a3565b15612044576040517f08c379a000000000000000000000000000000000000000000000000000000000815260040161203b9061382b565b60405180910390fd5b61205060008383611bbb565b6001600360008473ffffffffffffffffffffffffffffffffffffffff1673ffffffffffffffffffffffffffffffffffffffff16815260200190815260200160002060008282546120a0919061333e565b92505081905550816002600083815260200190815260200160002060006101000a81548173ffffffffffffffffffffffffffffffffffffffff021916908373ffffffffffffffffffffffffffffffffffffffff160217905550808273ffffffffffffffffffffffffffffffffffffffff16600073ffffffffffffffffffffffffffffffffffffffff167fddf252ad1be2c89b69c2b068fc378daa952ba7f163c4a11628f55a4df523b3ef60405160405180910390a45050565b828054612165906129b8565b90600052602060002090601f01602090048101928261218757600085556121ce565b82601f106121a057805160ff19168380011785556121ce565b828001600101855582156121ce579182015b828111156121cd5782518255916020019190600101906121b2565b5b5090506121db91906121df565b5090565b5b808211156121f85760008160009055506001016121e0565b5090565b6000604051905090565b600080fd5b600080fd5b60007fffffffff0000000000000000000000000000000000000000000000000000000082169050919050565b61224581612210565b811461225057600080fd5b50565b6000813590506122628161223c565b92915050565b60006020828403121561227e5761227d612206565b5b600061228c84828501612253565b91505092915050565b60008115159050919050565b6122aa81612295565b82525050565b60006020820190506122c560008301846122a1565b92915050565b600081519050919050565b600082825260208201905092915050565b60005b838110156123055780820151818401526020810190506122ea565b83811115612314576000848401525b50505050565b6000601f19601f8301169050919050565b6000612336826122cb565b61234081856122d6565b93506123508185602086016122e7565b6123598161231a565b840191505092915050565b6000602082019050818103600083015261237e818461232b565b905092915050565b6000819050919050565b61239981612386565b81146123a457600080fd5b50565b6000813590506123b681612390565b92915050565b6000602082840312156123d2576123d1612206565b5b60006123e0848285016123a7565b91505092915050565b600073ffffffffffffffffffffffffffffffffffffffff82169050919050565b6000612414826123e9565b9050919050565b61242481612409565b82525050565b600060208201905061243f600083018461241b565b92915050565b61244e81612409565b811461245957600080fd5b50565b60008135905061246b81612445565b92915050565b6000806040838503121561248857612487612206565b5b60006124968582860161245c565b92505060206124a7858286016123a7565b9150509250929050565b6124ba81612386565b82525050565b60006020820190506124d560008301846124b1565b92915050565b6000806000606084860312156124f4576124f3612206565b5b60006125028682870161245c565b93505060206125138682870161245c565b9250506040612524868287016123a7565b9150509250925092565b60006020828403121561254457612543612206565b5b60006125528482850161245c565b91505092915050565b600081519050919050565b600082825260208201905092915050565b6000819050602082019050919050565b61259081612386565b82525050565b60006125a28383612587565b60208301905092915050565b6000602082019050919050565b60006125c68261255b565b6125d08185612566565b93506125db83612577565b8060005b8381101561260c5781516125f38882612596565b97506125fe836125ae565b9250506001810190506125df565b5085935050505092915050565b6000602082019050818103600083015261263381846125bb565b905092915050565b61264481612295565b811461264f57600080fd5b50565b6000813590506126618161263b565b92915050565b6000806040838503121561267e5761267d612206565b5b600061268c8582860161245c565b925050602061269d85828601612652565b9150509250929050565b600080fd5b600080fd5b7f4e487b7100000000000000000000000000000000000000000000000000000000600052604160045260246000fd5b6126e98261231a565b810181811067ffffffffffffffff82111715612708576127076126b1565b5b80604052505050565b600061271b6121fc565b905061272782826126e0565b919050565b600067ffffffffffffffff821115612747576127466126b1565b5b6127508261231a565b9050602081019050919050565b82818337600083830152505050565b600061277f61277a8461272c565b612711565b90508281526020810184848401111561279b5761279a6126ac565b5b6127a684828561275d565b509392505050565b600082601f8301126127c3576127c26126a7565b5b81356127d384826020860161276c565b91505092915050565b600080600080608085870312156127f6576127f5612206565b5b60006128048782880161245c565b94505060206128158782880161245c565b9350506040612826878288016123a7565b925050606085013567ffffffffffffffff8111156128475761284661220b565b5b612853878288016127ae565b91505092959194509250565b600067ffffffffffffffff82111561287a576128796126b1565b5b6128838261231a565b9050602081019050919050565b60006128a361289e8461285f565b612711565b9050828152602081018484840111156128bf576128be6126ac565b5b6128ca84828561275d565b509392505050565b600082601f8301126128e7576128e66126a7565b5b81356128f7848260208601612890565b91505092915050565b60006020828403121561291657612915612206565b5b600082013567ffffffffffffffff8111156129345761293361220b565b5b612940848285016128d2565b91505092915050565b600080604083850312156129605761295f612206565b5b600061296e8582860161245c565b925050602061297f8582860161245c565b9150509250929050565b7f4e487b7100000000000000000000000000000000000000000000000000000000600052602260045260246000fd5b600060028204905060018216806129d057607f821691505b602082108114156129e4576129e3612989565b5b50919050565b7f4552433732313a20617070726f76656420717565727920666f72206e6f6e657860008201527f697374656e7420746f6b656e0000000000000000000000000000000000000000602082015250565b6000612a46602c836122d6565b9150612a51826129ea565b604082019050919050565b60006020820190508181036000830152612a7581612a39565b9050919050565b7f4552433732313a20617070726f76616c20746f2063757272656e74206f776e6560008201527f7200000000000000000000000000000000000000000000000000000000000000602082015250565b6000612ad86021836122d6565b9150612ae382612a7c565b604082019050919050565b60006020820190508181036000830152612b0781612acb565b9050919050565b7f4552433732313a20617070726f76652063616c6c6572206973206e6f74206f7760008201527f6e6572206e6f7220617070726f76656420666f7220616c6c0000000000000000602082015250565b6000612b6a6038836122d6565b9150612b7582612b0e565b604082019050919050565b60006020820190508181036000830152612b9981612b5d565b9050919050565b7f4552433732313a207472616e736665722063616c6c6572206973206e6f74206f60008201527f776e657200000000000000000000000000000000000000000000000000000000602082015250565b6000612bfc6024836122d6565b9150612c0782612ba0565b604082019050919050565b60006020820190508181036000830152612c2b81612bef565b9050919050565b7f4552433732313a206f776e657220717565727920666f72206e6f6e657869737460008201527f656e7420746f6b656e0000000000000000000000000000000000000000000000602082015250565b6000612c8e6029836122d6565b9150612c9982612c32565b604082019050919050565b60006020820190508181036000830152612cbd81612c81565b9050919050565b7f4552433732313a2062616c616e636520717565727920666f7220746865207a6560008201527f726f206164647265737300000000000000000000000000000000000000000000602082015250565b6000612d20602a836122d6565b9150612d2b82612cc4565b604082019050919050565b60006020820190508181036000830152612d4f81612d13565b9050919050565b7f4f776e61626c653a2063616c6c6572206973206e6f7420746865206f776e6572600082015250565b6000612d8c6020836122d6565b9150612d9782612d56565b602082019050919050565b60006020820190508181036000830152612dbb81612d7f565b9050919050565b7f4552433732313a207472616e736665722063616c6c6572206973206e6f74206f60008201527f776e6572206e6f7220617070726f766564000000000000000000000000000000602082015250565b6000612e1e6031836122d6565b9150612e2982612dc2565b604082019050919050565b60006020820190508181036000830152612e4d81612e11565b9050919050565b7f45524337323155524953746f726167653a2055524920717565727920666f722060008201527f6e6f6e6578697374656e7420746f6b656e000000000000000000000000000000602082015250565b6000612eb06031836122d6565b9150612ebb82612e54565b604082019050919050565b60006020820190508181036000830152612edf81612ea3565b9050919050565b600081905092915050565b6000612efc826122cb565b612f068185612ee6565b9350612f168185602086016122e7565b80840191505092915050565b6000612f2e8285612ef1565b9150612f3a8284612ef1565b91508190509392505050565b6000612f528284612ef1565b915081905092915050565b7f55524920616c7265616479206d696e7465640000000000000000000000000000600082015250565b6000612f936012836122d6565b9150612f9e82612f5d565b602082019050919050565b60006020820190508181036000830152612fc281612f86565b9050919050565b7f4e487b7100000000000000000000000000000000000000000000000000000000600052601160045260246000fd5b600061300382612386565b915061300e83612386565b92508282101561302157613020612fc9565b5b828203905092915050565b7f4f776e61626c653a206e6577206f776e657220697320746865207a65726f206160008201527f6464726573730000000000000000000000000000000000000000000000000000602082015250565b60006130886026836122d6565b91506130938261302c565b604082019050919050565b600060208201905081810360008301526130b78161307b565b9050919050565b7f4552433732313a206f70657261746f7220717565727920666f72206e6f6e657860008201527f697374656e7420746f6b656e0000000000000000000000000000000000000000602082015250565b600061311a602c836122d6565b9150613125826130be565b604082019050919050565b600060208201905081810360008301526131498161310d565b9050919050565b7f53656e646572207365656d7320746f2068617665206e6f20746f6b656e732e00600082015250565b6000613186601f836122d6565b915061319182613150565b602082019050919050565b600060208201905081810360008301526131b581613179565b9050919050565b7f4e487b7100000000000000000000000000000000000000000000000000000000600052603260045260246000fd5b7f4e487b7100000000000000000000000000000000000000000000000000000000600052603160045260246000fd5b7f4552433732313a207472616e73666572206f6620746f6b656e2074686174206960008201527f73206e6f74206f776e0000000000000000000000000000000000000000000000602082015250565b60006132766029836122d6565b91506132818261321a565b604082019050919050565b600060208201905081810360008301526132a581613269565b9050919050565b7f4552433732313a207472616e7366657220746f20746865207a65726f2061646460008201527f7265737300000000000000000000000000000000000000000000000000000000602082015250565b60006133086024836122d6565b9150613313826132ac565b604082019050919050565b60006020820190508181036000830152613337816132fb565b9050919050565b600061334982612386565b915061335483612386565b9250827fffffffffffffffffffffffffffffffffffffffffffffffffffffffffffffffff0382111561338957613388612fc9565b5b828201905092915050565b7f4552433732313a20617070726f766520746f2063616c6c657200000000000000600082015250565b60006133ca6019836122d6565b91506133d582613394565b602082019050919050565b600060208201905081810360008301526133f9816133bd565b9050919050565b7f4552433732313a207472616e7366657220746f206e6f6e20455243373231526560008201527f63656976657220696d706c656d656e7465720000000000000000000000000000602082015250565b600061345c6032836122d6565b915061346782613400565b604082019050919050565b6000602082019050818103600083015261348b8161344f565b9050919050565b7f4552433732314d657461646174613a2055524920717565727920666f72206e6f60008201527f6e6578697374656e7420746f6b656e0000000000000000000000000000000000602082015250565b60006134ee602f836122d6565b91506134f982613492565b604082019050919050565b6000602082019050818103600083015261351d816134e1565b9050919050565b600081519050919050565b600082825260208201905092915050565b600061354b82613524565b613555818561352f565b93506135658185602086016122e7565b61356e8161231a565b840191505092915050565b600060808201905061358e600083018761241b565b61359b602083018661241b565b6135a860408301856124b1565b81810360608301526135ba8184613540565b905095945050505050565b6000815190506135d48161223c565b92915050565b6000602082840312156135f0576135ef612206565b5b60006135fe848285016135c5565b91505092915050565b600061361282612386565b91507fffffffffffffffffffffffffffffffffffffffffffffffffffffffffffffffff82141561364557613644612fc9565b5b600182019050919050565b7f4e487b7100000000000000000000000000000000000000000000000000000000600052601260045260246000fd5b600061368a82612386565b915061369583612386565b9250826136a5576136a4613650565b5b828204905092915050565b60006136bb82612386565b91506136c683612386565b9250826136d6576136d5613650565b5b828206905092915050565b7f45524337323155524953746f726167653a2055524920736574206f66206e6f6e60008201527f6578697374656e7420746f6b656e000000000000000000000000000000000000602082015250565b600061373d602e836122d6565b9150613748826136e1565b604082019050919050565b6000602082019050818103600083015261376c81613730565b9050919050565b7f4552433732313a206d696e7420746f20746865207a65726f2061646472657373600082015250565b60006137a96020836122d6565b91506137b482613773565b602082019050919050565b600060208201905081810360008301526137d88161379c565b9050919050565b7f4552433732313a20746f6b656e20616c7265616479206d696e74656400000000600082015250565b6000613815601c836122d6565b9150613820826137df565b602082019050919050565b6000602082019050818103600083015261384481613808565b905091905056fea26469706673582212205a72d7d9abd9248b73688df2a8b239dd413529abf4d998636918534f48c6292064736f6c634300080a0033",
  "immutableReferences": {},
  "source": "// SPDX-License-Identifier: MIT\npragma solidity >=0.7.0 <0.9.0;\n\n// import \"https://github.com/OpenZeppelin/openzeppelin-contracts/blob/master/contracts/token/ERC721/extensions/ERC721URIStorage.sol\";\n// import \"https://github.com/OpenZeppelin/openzeppelin-contracts/blob/master/contracts/utils/Counters.sol\";\n// import \"https://github.com/OpenZeppelin/openzeppelin-contracts/blob/master/contracts/access/Ownable.sol\";\n\nimport \"@openzeppelin/contracts/token/ERC721/extensions/ERC721URIStorage.sol\";\nimport \"@openzeppelin/contracts/utils/Counters.sol\";\nimport \"@openzeppelin/contracts/access/Ownable.sol\";\n\ncontract MeCoNft is ERC721URIStorage, Ownable {\n    using Counters for Counters.Counter;\n\n    Counters.Counter public tokenIds;\n    mapping(string => uint256) private tokenIdByURI;\n    mapping(address => uint256[]) public userOwnedTokens;\n    mapping(uint256 => uint256) private userOwnedTokenIndexes;\n\n    constructor() ERC721(\"MeCoNft\", \"MECONFT\") {}\n\n    function lastTokenId() public view returns (uint256) {\n        return Counters.current(tokenIds);\n    }\n\n    function mintNft(string memory tokenURI) external returns (uint256) {\n        require(tokenIdByURI[tokenURI] == 0, \"URI already minted\");\n        tokenIds.increment();\n        uint256 newNftTokenId = tokenIds.current();\n        userOwnedTokens[msg.sender].push(newNftTokenId);\n        userOwnedTokenIndexes[newNftTokenId] =\n            userOwnedTokens[msg.sender].length -\n            1;\n        _safeMint(msg.sender, newNftTokenId);\n        setTokenURI(newNftTokenId, tokenURI);\n\n        return newNftTokenId;\n    }\n\n    function setTokenURI(uint256 _tokenId, string memory _tokenURI) private {\n        _setTokenURI(_tokenId, _tokenURI);\n        tokenIdByURI[_tokenURI] = _tokenId;\n    }\n\n    function tokensOfUser(address _owner)\n        external\n        view\n        returns (uint256[] memory)\n    {\n        return userOwnedTokens[_owner];\n    }\n\n    function removeUserOwnedToken(address from, uint256 tokenId) private {\n        require(\n            userOwnedTokens[from].length > 0,\n            \"Sender seems to have no tokens.\"\n        );\n\n        // put last element in place of the to-be-deleted, effectively removing it\n        userOwnedTokens[from][userOwnedTokenIndexes[tokenId]] = userOwnedTokens[from][userOwnedTokens[from]\n            .length - 1];\n        // delete obsolete entry\n        userOwnedTokens[from].pop();\n        // delete index entry for token index\n        delete userOwnedTokenIndexes[tokenId];\n    }\n\n    function addUserOwnedToken(address to, uint256 tokenId) private {\n        userOwnedTokens[to].push(tokenId);\n        // update index entry\n        userOwnedTokenIndexes[tokenId] = userOwnedTokens[to].length - 1;\n    }\n\n    /* Transfer must update userOwnedTokens, so disable it for now */\n\n    /**\n     * @dev See {IERC721-transferFrom}.\n     */\n    function transferFrom(\n        address from,\n        address to,\n        uint256 tokenId\n    ) public virtual override {\n\n        require(\n            _isApprovedOrOwner(_msgSender(), tokenId),\n            \"ERC721: transfer caller is not owner\"\n        );\n        removeUserOwnedToken(from, tokenId);\n        addUserOwnedToken(to, tokenId);\n        _transfer(from, to, tokenId);\n    }\n\n    /**\n     * @dev See {IERC721-safeTransferFrom}.\n     */\n    function safeTransferFrom(\n        address from,\n        address to,\n        uint256 tokenId\n    ) public virtual override {\n        safeTransferFrom(from, to, tokenId, \"\");\n    }\n\n    /**\n     * @dev See {IERC721-safeTransferFrom}.\n     */\n    function safeTransferFrom(\n        address from,\n        address to,\n        uint256 tokenId,\n        bytes memory _data\n    ) public virtual override {\n        require(\n            _isApprovedOrOwner(_msgSender(), tokenId),\n            \"ERC721: transfer caller is not owner nor approved\"\n        );\n\n        removeUserOwnedToken(from, tokenId);\n        addUserOwnedToken(to, tokenId);\n        _safeTransfer(from, to, tokenId, _data);\n    }\n}\n",
  "sourcePath": "/Users/edesimon/Projects/blockchain/ethereum/nft-app/contracts/MeCoNft.sol",
  "compiler": {
    "name": "solc",
    "version": "0.8.10+commit.fc410830.Emscripten.clang"
  },
  "schemaVersion": "3.4.5",
  "updatedAt": "2022-03-18T13:47:17.693Z",
  "devdoc": {
    "kind": "dev",
    "methods": {
      "approve(address,uint256)": {
        "details": "See {IERC721-approve}."
      },
      "balanceOf(address)": {
        "details": "See {IERC721-balanceOf}."
      },
      "getApproved(uint256)": {
        "details": "See {IERC721-getApproved}."
      },
      "isApprovedForAll(address,address)": {
        "details": "See {IERC721-isApprovedForAll}."
      },
      "name()": {
        "details": "See {IERC721Metadata-name}."
      },
      "owner()": {
        "details": "Returns the address of the current owner."
      },
      "ownerOf(uint256)": {
        "details": "See {IERC721-ownerOf}."
      },
      "renounceOwnership()": {
        "details": "Leaves the contract without owner. It will not be possible to call `onlyOwner` functions anymore. Can only be called by the current owner. NOTE: Renouncing ownership will leave the contract without an owner, thereby removing any functionality that is only available to the owner."
      },
      "safeTransferFrom(address,address,uint256)": {
        "details": "See {IERC721-safeTransferFrom}."
      },
      "safeTransferFrom(address,address,uint256,bytes)": {
        "details": "See {IERC721-safeTransferFrom}."
      },
      "setApprovalForAll(address,bool)": {
        "details": "See {IERC721-setApprovalForAll}."
      },
      "supportsInterface(bytes4)": {
        "details": "See {IERC165-supportsInterface}."
      },
      "symbol()": {
        "details": "See {IERC721Metadata-symbol}."
      },
      "tokenURI(uint256)": {
        "details": "See {IERC721Metadata-tokenURI}."
      },
      "transferFrom(address,address,uint256)": {
        "details": "See {IERC721-transferFrom}."
      },
      "transferOwnership(address)": {
        "details": "Transfers ownership of the contract to a new account (`newOwner`). Can only be called by the current owner."
      }
    },
    "version": 1
  },
  "userdoc": {
    "kind": "user",
    "methods": {},
    "version": 1
  }
}